:020000040010EA
:1000000000000000000000000000000000000000F0
:1000100000000000000000000000000000000000E0
:1000200000000000000000000000000000000000D0
:1000300000000000000000000000000000000000C0
:1004000040BB1028452F1000C9291000312F1000C3
:10041000312F1000312F1000312F1000312F10001C
:10042000000000000000000000000000F530100097
:10043000312F100000000000BD301000C538100042
:100440002932100029321000293210002932100000
:1004500029321000293210002932100029321000F0
:1004600029321000293210002932100029321000E0
:1004700029321000293210002932100029321000D0
:1004800029321000293210002932100029321000C0
:1004900029321000293210002932100029321000B0
:1004A00029321000293210002932100029321000A0
:1004B0002932100029321000293210002932100090
:1004C0002932100029321000293210002932100080
:1004D0002932100029321000293210002932100070
:1004E0002932100029321000293210002932100060
:1004F0002932100029321000293210002932100050
:10050000293210002932100029321000293210003F
:10051000293210002932100029321000293210002F
:10052000293210002932100029321000293210001F
:10053000293210002932100029321000293210000F
:1005400029321000293210002932100029321000FF
:1005500029321000293210002932100029321000EF
:1005600029321000293210002932100029321000DF
:1005700029321000293210002932100029321000CF
:1005800029321000293210002932100029321000BF
:1005900029321000293210002932100029321000AF
:1005A000293210002932100029321000293210009F
:1005B000293210002932100029321000293210008F
:1005C000034613F8012B002AFBD1181A0138704793
:1005D0002DE9904383B01A4802AF036803F0070384
:1005E000022B13D96C4688B002AA164B0FF24809A9
:1005F000D9E9008953610423C2E9068942F8103F12
:1006000000234FF4035101F0B1FEA5460AA1D1E940
:10061000000100234FF4847200930B4B04F060FB45
:10062000034618B1094900F0A9FC034618460437EF
:10063000BD46BDE8908300BF7ADACF5500000000C8
:10064000680210280BA51000000010284BA5100010
:10065000002330B585B0054611A1D1E9000101AAFA
:10066000CDE90133039304F059FB10F18C0F0446DC
:1006700008D1FFF7ADFF4FF48472044606492846BF
:1006800008F05CFE24B12046044900F077FC0446E3
:10069000204605B030BD00BF000010283DA5100069
:1006A0007ADACF550000000008B506F07DFF0C484F
:1006B000FFF7CEFF38B10B4803685B0703D0012179
:1006C000094A06F0E8FF00F069F800F0A7FA00F028
:1006D00021FC00F039F906F03EF9002008BD00BF0A
:1006E000200D102868021028E09E10002DE9F0432C
:1006F000302980460D4691461F4685B003D04029DB
:1007000001D020293CD103AB00934FF4107304F0C7
:100710008DFD044658BB1C4E336803F00703022BC3
:1007200010D9039B03213046184A06F0BDFF3368F9
:1007300003F00703022B05D903212B463046144A48
:1007400006F0B2FF4FF410734A4629464046009720
:1007500004F06CFD3368044603F00703022B05D94F
:100760003B6803210B4A084806F09EFF24B120464F
:10077000094900F003FC0446204605B0BDE8F083BB
:100780006FF01504F3E700BF68021028109F1000F7
:10079000339F10005F9F1000819F100010B5194C0F
:1007A000ADF5926D2146422204A808F0C7FD4FF432
:1007B000FF7200210DF1520008F0E7FD4FF41073B5
:1007C00000214FF40F7295A80193949108F0DDFD7C
:1007D000D4F8420094F8463002908DF80C30402155
:1007E00001AB94AA04A8FFF781FF044630B906F0D4
:1007F000B2F8019A94A902A800F0A6FC20460DF5D3
:10080000926D10BDC098100070B59AB018220021EA
:1008100003A808F0BAFD00213F4D3D220AA8099126
:1008200008F0B3FD2B6803F00703022B05D9012361
:1008300003212846394A06F086F801264FF4705401
:1008400006F089F8364B6946CDE90336354B03A8E7
:10085000CDE90543089604F0C3FC334900F08EFB54
:10086000044640B12B68580730D0304A01212A484D
:1008700006F06BF82AE0009804F08CFA2A4900F0A0
:100880007DFB2B68044618B15B071FD0284AEDE7B3
:1008900003F00703022B05D933460321254A1E48DE
:1008A00006F051F806F057F802A9012004F050FABA
:1008B000214900F063FB044668B12B68590705D055
:1008C00001231E4A1946144806F03DF806F043F885
:1008D00020461AB070BD412201AB09A9029804F06C
:1008E000E1FA154900F04AFB044620B12B685A078B
:1008F000ECD0134ABAE7019A09A9124800F024FC87
:10090000029804F047FA0C4900F038FB044600282E
:10091000DED02B68B8E700BF680210288D9F10005A
:100920001271000109060006E4A41000AD9F10003A
:10093000C59F1000E59F1000D4A4100007A0100070
:1009400029A010000C02102830B5ADF64C0D12ADE8
:1009500008A8994C049508F0DDFA05A808F02FF9CD
:100960004FF480620021284608F00FFD236803F051
:100970000703022B04D903212046904A05F0E5FF26
:1009800005F0E9FF08F0E2FA8D4900F0F7FA236874
:1009900038B159071FD08B4A0121874805F0D5FF90
:1009A00019E003F00703022B04D90321864A824889
:1009B00005F0CBFF05F0CFFFFFF726FF804900F0E1
:1009C000DDFA98B123685A0705D001237F4A012137
:1009D000794805F0B8FF05F0BEFF08A808F09EFAB8
:1009E00005A808F0F1F80DF64C0D30BD03A9012063
:1009F00004F0AEF9724900F0C1FA014628B123684B
:100A00005B07E8D00123724AE1E718220CA808F03E
:100A1000BCFC0CA9039804F025FA092108A808F0E9
:100A20008CFA236803F00703022B04D90321694AD7
:100A3000614805F08AFF05F08EFF674908A808F0B5
:100A400080FA034620B122685507C4D0634ABEE746
:100A5000236803F00703022B04D90321604A564898
:100A600005F073FF05F077FF236803F00703022BFF
:100A700004D903215B4A504805F067FF05F06BFF7E
:100A8000039905A803F02CFC236820B15C07A2D0D1
:100A9000554A43429BE703F00703022B04D9032185
:100AA000524A454805F051FF05F055FF05A908A831
:100AB00008F045FA236803F00703022B04D9032149
:100AC0004B4A3D4805F041FF05F045FF00234FF438
:100AD000806200932946474B08A804F0AFF8031E34
:100AE00006DA226851073FF476AF434A5B426EE76D
:100AF000236803F00703022B04D903213F4A2E4841
:100B000005F023FF05F027FF236803F00703022BFE
:100B100004D903213A4A284805F017FF05F01BFFC6
:100B2000284605F04FFC236803F00703022B04D985
:100B30000321344A204805F008FF05F00CFF4FF46C
:100B400080630121009330480DF5896304AA01F008
:100B5000B5F8034628B1226852073FF43CAF2B4A50
:100B600035E7236803F00703022B04D90321284A41
:100B7000114805F0EAFE05F0EEFE236803F00703D6
:100B8000022B04D90321234A0B4805F0DEFE05F0B1
:100B9000E2FE0DF5896005F015FC039804F0FAF803
:100BA000074900F0EBF900283FF415AF23685B0715
:100BB0003FF411AF184AEFE66802102846A0100073
:100BC000FAA410005EA0100072A010008CA010000B
:100BD00007A01000B0A01000CBA01000EAA01000E9
:100BE00025A110004AA1100068A1100099A11000D1
:100BF000C1A110003F691000EBA110001EA210005F
:100C000052A2100070A210000C99100085A21000D2
:100C1000B1A21000D0A21000C59F1000F0B5A9B07D
:100C20000FAA17469F4B03F1200514461868596810
:100C3000083303C4AB422246F7D119889B78218040
:100C4000A37000241C22214608A8079408F09DFBED
:100C500021463C2219A8189408F097FB08F076F971
:100C6000914900F08BF9914C064648B123685D0725
:100C700004D0012120468E4A05F067FE29B0F0BD60
:100C8000FFF7C2FD3846FFF79BFC2368054603F0DB
:100C90000703022B069604D903212046854A05F056
:100CA00054FE05F058FE2A463946834800F04CFAB7
:100CB000824906A804F01CF9814900F05FF968B187
:100CC0002368580704D07F4A0121784805F03DFE8B
:100CD00006A804F081F905F03EFE21E039462A46D7
:100CE00006A804F029F9764900F048F920B12368F4
:100CF0005907EDD0744AE7E707A9202204AB06A8FC
:100D000004F03CF96E4900F039F920B123685A0724
:100D1000DED06E4AD8E72022674807A900F014FA0F
:100D20002368049E03F00703022B04D90321684AB9
:100D30005E4805F00AFE05F00EFE06A9012004F04B
:100D400007F8644900F01AF900283FD023685B07D0
:100D500005D00123604A1946544805F0F4FD05F01A
:100D6000FAFDDDE90456236803F00703022B04D9DA
:100D700003215A4A4D4805F0E8FD05F0ECFD06A9AF
:100D8000012003F0E5FF564900F0F8F8002849D0AB
:100D900023685D0705D001234F4A1946434805F0F3
:100DA000D2FD05F0D8FD06A9012003F0D1FF4D4981
:100DB00000F0E4F8002863D023685A076FD00123BD
:100DC0001946454A394805F0BEFD68E005AB029377
:100DD000402318AD4449019306983346009507AA6D
:100DE00004F048F93B4900F0C9F828B123685F07CF
:100DF000B5D001233D4AAEE72946059A2E4800F0BA
:100E0000A3F9069803F0C6FF324900F0B7F80028AE
:100E1000A7D023685E07A2D00121354A234805F0F8
:100E200094FD9CE718AB3049009307AA2B4606981F
:100E3000019604F04DF92A4900F0A0F8236838B172
:100E40005807AED02B4A0121184805F07EFDA8E7CF
:100E500003F00703022B04D90321274A134805F0A6
:100E600074FD05F078FD069803F094FF1C4900F02E
:100E700085F8002897D02368590792D01C4AE2E7EA
:100E8000069803F0D1FF174900F078F82368B8B34B
:100E90005B0704D00121194A044805F056FD05F00E
:100EA0005AFDEBE63AA41000CBA41000680210280B
:100EB0005EA01000F6A210000C021028090000022B
:100EC000BAA4100018A3100031A3100048A310000A
:100ED00064A31000ACA4100007A01000A2A310008F
:100EE0009CA410008FA410000906000679A310002E
:100EF000C59F1000C7A31000E6A31000FAA31000BE
:100F000003F00703022BCAD901230321004A59E742
:100F10001DA41000002100B5C3B0FC2203A802915B
:100F200008F033FA114B4FF4807118681B79009068
:100F300002A88DF8043004F033F90D4900F01EF8D2
:100F40000C48036803F00703022B03D903210A4A64
:100F500005F0FBFC05F0FFFC4FF48072684602A927
:100F600000F0F2F843B05DF804FB00BF07991000F1
:100F700082A41000680210285DA41000F8B510F1DA
:100F8000800F04460D4600AF15DA10F1970F13DB02
:100F900000F19703524A162B0ED8DFE803F09B0DA1
:100FA00091968C87827D78736E69645F5A55504B39
:100FB00046413C37170030B3494803685A0722D0EE
:100FC00001212346474A06F06FFB06E013685807E5
:100FD00019D04549424805F0BAFC414803685B070F
:100FE00011D06E4688B06A46404BC2E905354FF4D1
:100FF000007393833E4B42F8103F00234FF4E251BD
:1010000001F0B4F9B5462046BD46F8BD136859074E
:10101000F9D03849DEE713685A07F4D03649D9E7E2
:1010200013685B07EFD03549D4E713685E07EAD051
:101030003349CFE713685807E5D03249CAE7136848
:101040005907E0D03049C5E713685A07DBD02F496C
:10105000C0E713685B07D6D02D49BBE713685E076E
:10106000D1D02C49B6E713685807CCD02A49B1E74C
:1010700013685907C7D02949ACE713685A07C2D08B
:101080002749A7E713685B07BDD02649A2E7136885
:101090005E07B8D024499DE713685807B3D02349A9
:1010A00098E713685907AED0214993E713685A07A8
:1010B000A9D020498EE713685B07A4D01E4989E7B1
:1010C00013685E079FD01D4984E7136858079AD0BC
:1010D0001B497FE71368590795D01A497AE700BF83
:1010E00068021028EDA610005BA510000BA71000E9
:1010F000030000016CA510007FA510008FA5100053
:101100009DA51000ABA51000C1A51000D2A5100030
:10111000E1A51000EBA51000FCA510000BA6100027
:101120001AA610002EA6100043A610005CA6100000
:101130006CA6100082A6100092A61000A3A61000B4
:10114000B5A61000D2A610002DE9F74F0446894637
:101150001746002A00F08D800378D0F801609807C8
:10116000164412D50A2005F027F9434805F012F974
:10117000424805F00FF9424805F024F9D4F801106F
:10118000404821F00F0105F005F9D4F801A01AF04C
:101190000F0A08D00025DFF8F0804046013505F041
:1011A000F9F8AA45F9D1D4F801B0A9F10F085D46C4
:1011B0005F4498F80F1035480AF1010A05F0EAF883
:1011C000BAF1100F2A4605F1010501D0AE422AD12D
:1011D0002378D9071DD5AE422FD116F00F0A40D083
:1011E000AAEB8A01CBF1010313443031284A294884
:1011F000019305F0CFF8D4F80120019BB21A0F2A11
:10120000A3EB0A0098BF03F00F0A5146484405F0CB
:10121000A8FB0A2005F0D0F8AE4202D023789B0745
:1012200022D44FF0000AAF4208F10108C1D10A20D0
:1012300003B0BDE8F04F05F0BFB8D4F8011001F1DC
:101240000F03AB420DD901F00F01134A114805F00D
:10125000A1F8D4F80110484601F00F01C1F11001C6
:10126000D5E710214046D2E72946064805F092F816
:10127000D7E703B0BDE8F08F80A710001EA71000CD
:101280003DA710004EA7100087A7100054A710001C
:101290005AA710008BA710007AA710002DE9F04F75
:1012A00091B0009302F004030293C2F3C20301332E
:1012B000840705460E46DDF868900392059340F0DA
:1012C000BB81041D30B1072909D86FF01B0011B094
:1012D000BDE8F08F01F00706341DC6F10806009B3B
:1012E0004FF000084FF0040A591E4FF0FF334746F5
:1012F0000193C3465346CDF810800DB1009A226089
:101300000598002800F3E8809848009A824203D3A9
:1013100097488242C0F0E080039AA4EB050E920742
:101320004FEA9E0000F103810F2F00F2B180002DE3
:1013300000F0058107F140020DEB020C019A0CF858
:10134000200C0CF8102C049801300490E7E07A2867
:101350005DD84B280ED8472859D829282DD82528BC
:1013600052D054D820287AD02338D0F1000B4BEB40
:10137000000B74E04C382E2849D8DFE800F07048A4
:10138000484848484848484848484B4848484848DA
:1013900048484859484B4B595959704B6D4870480B
:1013A000184B184848827F4B48484B487F00002024
:1013B0004FF0000B4FF0040A38E001222A38C0B287
:1013C00002FA00F010EA0E0F49D110F0625C2FD142
:1013D00010EA020B43D06046013C5444B4FBFAF4DB
:1013E0000AFB04F4002D61D0A3EB050CA444B44522
:1013F0003FF66BAF002868D1042B47D159F8043B66
:101400002360042304342AE0019A013A01924FF048
:10141000000B24E011F8010C6C2834D1002011F8E5
:10142000023C83466C2BC5D14FF0080A5346D3E7E4
:1014300009F1070929F00709073424F00704F9E83E
:1014400002AB35B106982044B0423FF63EAFC4E946
:1014500000AB4FF0000B08344FF0080A534611F868
:10146000010F002878D0BBF1000F7FF470AF252862
:10147000F5D14FF0010B019B013301934FF0040AAA
:10148000ECE7584694E700208346A5E7082B02D0F6
:101490006FF015001BE709F1070929F00709F9E8C2
:1014A0000223C4E9002308230834D8E768B9042BD1
:1014B00002D109F10409A4E7082BE9D109F10709D0
:1014C00029F0070909F10809EDE7059A013A0592A3
:1014D00059F8042B009210E7039A900720D54FF09B
:1014E000010CA4EB050E4FEA9E00BEF5007FCFD2A3
:1014F0000F2FCDD8F5B107F140020DEB020E019A86
:10150000C0B20EF8200C0EF8102CBCF1000F3FF406
:101510001AAF60F07F000EF8200C08F101080137C7
:10152000C5F108024FF6DA7E0434069297E74FF0D1
:10153000000CDAE7BCF1000F01D00136EFE70298AA
:1015400002360028EBD10098CDE90631FFF738F8D4
:10155000DDE906310644E2E7631BB3F5806F97D2FD
:1015600045B9A6F10804E018B1E600BFE893100001
:1015700038B81000029A9B0828602B709DF8103034
:10158000C2B1EB7085F80280B8F1000F05D00022DF
:1015900008A8C5F1010C97420ED14FF0000AC5F121
:1015A00001030DF1200901930DF1300B574512D1C4
:1015B000601B8CE66B70E5E710F8013B190608D557
:1015C00004EB0C0EB64503F07F033FF67EAE04F845
:1015D000013B0132DFE7B8F1000F03D099F9002099
:1015E000002A17DB029BD3B11AF80B2004F8012B59
:1015F0000022019B98182044B0423FF666AE99F84D
:101600000000009904F8010B2046039207F096FEB3
:10161000039A14440AF1010A09F10109C6E799F88D
:10162000002055F822300093029B009845F82230A4
:10163000FEF7C6FF421CDCE76FF00D0047E600BF77
:101640002DE9F04F97B000AFD7F880B07B62CBF3B5
:10165000C0030446894690F802A0FA62BB6141B912
:10166000457800780AEB800020444D4517D8A0EB60
:101670000409E378FB61BAF1000F02D01BF0010FFF
:1016800016D1FB6953BBFB6A1BB1494620467A6AF7
:1016900098474D4628465C37BD46BDE8F08F461C4E
:1016A0003046FEF78DFF0130304409F10109DCE7D7
:1016B00062682378BA62FA6A9900796104EB83015F
:1016C000002A40F005810E464FF000084D4601EB20
:1016D0000A094E4550D101EB0A0610E01BF0020F3B
:1016E000D1D023789A007A61626804EB8301BA62F0
:1016F000FA6A002A7BD14D46904601EB0A061BF0A0
:10170000050F0CBF02230123FB62FB6906EB430AB2
:101710000BF002037B625645BCD016F8021B16F88C
:10172000013C54F823909C4B994502D39B4B99451F
:101730003AD3BB69002B44D0B86A05F000FC0028FE
:101740003FD09748036813F0060F13D0E9468AB0DC
:101750006A46944B5361BB6AC2E906314FF4007389
:101760001384914B42F8103F00234FF4125100F0C4
:10177000FDFDCD46023DCEE716F8013BF96254F877
:101780002300FEF71DFFD7F88430F96A01304BB112
:10179000D7F8883098453EBFD7F8843023F8180032
:1017A00008F10108054494E7BB6923B1B86A05F064
:1017B000C6FB0028C5D11BF0010F05D1FB6AED1A4D
:1017C000A9E77B6A002BA6D04846FEF7F9FED7F8BA
:1017D000843053B1D7F8883098453FBFD7F884207C
:1017E000431C22F8183008F10108054493E7BAF1C8
:1017F000000F73D01BF0040673D0D046002607F10B
:10180000480052463B61396207F098FD396A3B69EE
:1018100001EB0A023A62FA695200FA60D7E907124C
:1018200002EB41023A610BF00202BA603A69396A8E
:101830008A4258D162781BF0020F18BF0021BA62A9
:1018400008BF4FEA5801B2181BF0010FD2B240F0A6
:10185000A1801BF0040F14BF40460020BB616270E2
:10186000A070E17020467A6A7969FB6A9847051E84
:10187000FFF610AFBB6941462370BB6A7A6A63709A
:10188000FB6984F802A0E37007F14800FB6A9847FF
:10189000B0F10008C0F2B6807B69A9EB0A01C91A51
:1018A000FB687A6AC91A386AFB6A98470028C0F24E
:1018B000AB804FF0000BA84408EB000507F1380A95
:1018C000B34573D300217A6A0846FB6A9847E1E67C
:1018D00056464FF0000807F1380092E75646D046CA
:1018E00096E7B04694E73A6A12F8021B12F8015CD8
:1018F0003A6254F82500284A904202D3274A90427F
:1019000020D3BA6932B1B86A7B6005F018FB7B68F6
:1019100000288BD1BA6812BB08F1280208F1010037
:1019200007F1300CC0B294440CF8101C00F12802EE
:1019300007F1300108F1020850185FFA88F800F842
:10194000105C73E7BA693AB1B86A7B6005F0F7FAE0
:101950007B6800287FF46AAF1BF0010F09D006F105
:10196000280207F13000711C161806F8205CCEB270
:101970005CE71BF0040F3FF459AF08F1280207F1B0
:10198000300008F1010102EB000808F8105C5FFA72
:1019900081F84BE7002061E7E893100038B81000A9
:1019A0006C02102890A71000040000011BF80A30F8
:1019B00054F8239087F83730D7F88430FBB133F8E8
:1019C0001B8001217A6AFB6A07F1370098470028DB
:1019D0001ADB0544B8F1000F06D14846FEF7F0FDCA
:1019E00000F101081FFA88F8414648467A6AFB6A06
:1019F0009847002808DB05440BF1010B60E7D7F896
:101A00008480DEE7454645E6054643E6014B18601F
:101A1000704700BF0801102880B505460E461746DE
:101A2000984604F0FBF9034607F0D4FC0446DFF8BF
:101A30001890424649F8003039463046A84754F8D5
:101A4000090001F0E5FA00BF080000002DE9F341AC
:101A50000C460646012113481546A04700281ADB0C
:101A60005C273668B04616F8010B38B92A460121C2
:101A700023460C4802B0BDE8F041184705F030FDA0
:101A800060B12A4602218DF805008DF8047001A886
:101A9000A0470028E6D002B0BDE8F0812A46012127
:101AA0004046F5E744A810002DE9F14F0A9E05468F
:101AB00088469146012132461B481C46984700281B
:101AC0002FDB0027DFF864A0DFF864B0B8453246AA
:101AD00006D101212346174801B0BDE8F04F184751
:101AE00021462846FFF7B2FF00281ADB32460121C3
:101AF0005046A047002814DB334622464946284674
:101B000000F01AF800280CDB08F1FF339F4202D3E3
:101B100001371035DAE7324601215846A047002840
:101B2000F6DA01B0BDE8F08F46A8100048A8100012
:101B30007DB510004AA810002DE9F0411D464379FB
:101B4000B0F806805B08322B0E46144686B001EBD7
:101B5000080753D00AD8302B37D0312B49D0222B4D
:101B600023D06FF0150006B0BDE8F081742B04D0CF
:101B70000ED85B2B21D0662BF3D116F808302A46FD
:101B800083B104212648234606B0BDE8F04118473A
:101B90007B2BE6D100951346D0E902013A46FFF7C8
:101BA00083FFE0E705211F48EDE72A462146384636
:101BB00006B0BDE8F041FFF749BF009513468068C5
:101BC0000A46394600F034F8CDE751F808300C21C8
:101BD000154A0DEB010004F015FC0028C3DB0B28AF
:101BE00004DC01462A4603A8A047BCE76FF00B00BF
:101BF000B9E72A46796856F80800C4E72A46012161
:101C00000A48A0470028AEDB2A46796856F8080043
:101C1000A0470028A7DB2A4601210448B3E700BFFC
:101C20004CA8100051A8100008A7100044A81000EC
:101C30002DE9F14F0A9F1D46C388044652F803A0C0
:101C40000E463A4601211A48A84700282CDB637942
:101C50004FF0000803F0FE03B62B08BFA4680AF19A
:101C6000FF3B204605F0F3FB8146D04507D13A46BD
:101C700001212B460F4801B0BDE8F04F1847E1881D
:101C80003B462A462046711AFFF756FF00280BDB19
:101C9000C34503D84E4408F10108E6E73A4601215E
:101CA0000548A8470028F5DA01B0BDE8F08F00BF6D
:101CB00057A8100059A810007DB5100010B50024D9
:101CC00086B0CDE90334089B059303AB0093024B28
:101CD000FFF7EAFE06B010BD1D7510002DE9F047B4
:101CE000044607464FF00109DFF8508014B9384622
:101CF000BDE8F08794FAA4F5B5FA85F509FA05F37D
:101D00002E0108EB05156FEA030A24EA03042B7B76
:101D1000002BEBD058F806301B694BB9464473686A
:101D200004222846196807EA0A0700F0DFFADDE70F
:101D3000284698470028D9D1F0E700BFB098100096
:101D400030B5002289B00F490F4807F052FA00223F
:101D500000230024CDE906230E230C4DCDE90334E6
:101D60004FF440722846CDE90144094B09490094DB
:101D700003F090FD0849284607F043F9204609B0D2
:101D800030BD00BF9D1D1000480B1028C002102858
:101D900095201000408F102894A81000014803F0EF
:101DA000F1BC00BFAC0210282DE9F04780461E4868
:101DB0000F4605F0DEFB064678B300252846BDE851
:101DC000F087237B6BB12368DB680BB12046984713
:101DD00023681B69CBB9636804222046196800F0A8
:101DE00085FA013610344C45EBD3B8F1000FE5D03D
:101DF000002DE2D02846FFF771FF0546002FF7D0EF
:101E000000210A2003F0F6FFF2E720469847002859
:101E1000E1D00AFA06F31D43E3E705464FF0010A55
:101E2000024CDFF80C90DEE7500E1028B09810003E
:101E3000C0981000014B53F82000704754991000CF
:101E400008B5034608462BB1044A136000F01EFD96
:101E5000002008BD6FF01500FBE700BF0C01102843
:101E600010B5044C237813B9034803F08BFC01230D
:101E7000237010BD340F1028AC02102810B5044692
:101E8000064805F076FB3CB1054BD3E8EF1F01395E
:101E9000C3E8E21F002AF8D110BD00BF480E102889
:101EA0004C0E102800200146034BD3E8EF0FC3E887
:101EB000E21F002AF9D17047480E102870B5FFF7CD
:101EC000F1FF0546074C084EB44200D370BD63686D
:101ED0005B792BB123685B6813B12946204698478C
:101EE0001034F1E7B0981000C098100010B5044C01
:101EF0000449204605F053F9034B1C6010BD00BF98
:101F00002C02102840991000400E102808B500231C
:101F1000084A4FF47A711370074A08481360084A58
:101F20001360FFF78DFFFFF7E1FFBDE8084000F009
:101F300049B900BF350F1028480E102885751000CC
:101F40004C0E1028014600220023014805F048B934
:101F50002C021028014805F0DEB900BF2C02102821
:101F6000024B0146186805F02ABA00BF400E10283F
:101F7000014805F05FBA00BF2C0210282DE9F0419E
:101F80002D4B1878002855D0FFF7E4FF044678B1B0
:101F90002A4BD3E8EF1F0139C3E8E21F002AF8D12A
:101FA000274DDFF8A080454522D32046FFF7D8FF14
:101FB000254B264C1B68002B0EDD07F018F9D4E9E1
:101FC0000032C01A40F2E93361EB0201984271F12C
:101FD000000101D3FFF772FFD4E9003213F57A73E1
:101FE00042F10002C4E90032BDE8F041FFF7C0BF92
:101FF0006B685B793BB121784B0706D52B6821468E
:1020000028461B6898471035CDE720462688C1F33F
:10201000C20700F079FAC6F382160246002EEDD010
:102020000028EBDB01233946284600F079F9B0425D
:10203000E9D3E3E7BDE8F081340F10284C0E1028F7
:10204000B0981000C0981000480E1028400B1028BF
:1020500070B50D4D297861B90120FFF7A5FE0B4C35
:102060000B4EB44206D3FFF789FF0028FBD10123B2
:102070002B7070BD63685B791BB1236820469B6839
:1020800098471034EDE700BF350F1028B0981000C6
:10209000C098100000212DE9F0470846FFF784FEA4
:1020A000044618B34FF032084FF0000907F092F9D8
:1020B0000025174B174F1A58174BDFF860A01A600E
:1020C00044B12046FFF70AFE044618B94FF0FF3826
:1020D0004FF0FF39FFF752FF064628B9B5B942461F
:1020E0004B46504603F072FB3546E9E74FF0FF38A8
:1020F0004FF0FF39DAE72B689B691BB100222846B5
:10210000114698471035BD42F5D3E8E7044DFAE78C
:1021100008000000C0981000440E1028AC021028DF
:10212000B098100013B5134805F023FA124B1B7832
:1021300073B1EFF31184202383F31288BFF36F8F01
:10214000FFF71CFF84F31188BFF36F8F02B010BD3F
:102150000A4B1B68002BF9D00028F7D1002200237E
:102160000748CDE900234FF47A72002304F0ACF85D
:10217000ECE700BF4C0E1028350F1028440E102835
:10218000480B102810B5064B04461B68984721469B
:10219000A060044805F0A0F8BDE81040FFF7C2BFFA
:1021A0000C0110282C021028044A054B9B1AB1EB95
:1021B000D30F34BF52F831000020704778981000D8
:1021C000B098100000210B480B4B30B51B1A0B4C7C
:1021D000DB080430994200D130BD10F83120256869
:1021E00002F0070225F007052A4344F8042B0131C9
:1021F000F0E700BF78981000B0981000680210282F
:1022000000282DE9F047884615461F461DDA4FF095
:10221000000A5446DFF89090244EA6EB09063609D2
:10222000B24509F1100902D12046BDE8F08759F8FE
:102230000C0C3B462A4641460079FFF7E1FF8442F9
:1022400038BF04460AF1010AEAE7194B194AD21AC3
:10225000B5EBD20F26D203EBC5031C79BC4228BFD5
:102260003C460722144EC0B200EB400056F8253021
:10227000824023EA020304F0070282401343002154
:10228000032223FA02F000F00700814202F1030268
:1022900038BF01461E2AF4D123F007030B4346F84A
:1022A0002530C1E70024DCE7B0981000C09810008A
:1022B00078981000B098100068021028F8B506460B
:1022C0000F460024074D084BED1AED08AC4200D331
:1022D000F8BD002122B23B463046013405F06DF9CD
:1022E000A4B2F3E7B09810007898100038B50D4606
:1022F00011460A4B4268C31A1B110446013313717D
:1023000043689971FFF7DAFF012263681D60636813
:102310005A71BDE83840FFF7A3BD00BFB098100068
:1023200070B14168097973B1002A17DBCBB20C494F
:1023300003EB430351F82200D84000F00700704738
:102340004FF0FF31EFE707490748401AB2EBD00FD3
:102350003ABF01EBC2010879184670470420704764
:102360006802102878981000B09810002DE9F04FFE
:102370008FB0C1F34A2804AF0D469146B8607B6028
:102380000C0DB8F1000F67D000264FF0040B4FF092
:102390000A0A07F11403C7F80C80C7E907667E62D2
:1023A0000193CDF808B0CDF800A007F11C03324628
:1023B0004846F968FFF744F9B0F5006F034620D3AB
:1023C0002A48036813F0060F17D06C468AB0D9F874
:1023D000041004AB264D1A46C3E9055140F2FF71C3
:1023E000D9614FF400711984224B42F8103F4FF429
:1023F00012513346FFF7BAFFA5462C37BD46BDE85C
:10240000F08FC0F30A0804F11700184420F0070009
:1024100080083B60FFF796FD68F35325044690B1B2
:102420003B6800F11001C7E9083607F11403F961B0
:10243000CDE900A3CDF808B048460F4AF96807F186
:102440001C03FFF7FDF868F353252A4620467B68F6
:10245000B96805F0D0F8D0E704F1170020F00700C4
:102460008008FFF76FFD0446EDE700BF70021028FB
:10247000A9A8100004000001CB7510002DE9F04F51
:1024800087B00446DDE9105ADDE912690F4693462C
:102490009846A6B31021334652460020CDF800904E
:1024A000CDF81490FEF7FAFE014605F11700084436
:1024B000144B04F007040BF0070BE40020F00700B6
:1024C00003EA412344EA8B1480081C430391FFF77D
:1024D00039FD44EA0554054640B13EB13346524603
:1024E0000399CDF800901030FEF7D8FE43462246FF
:1024F0003946284607B0BDE8F04F05F07CB83146B4
:10250000D3E700BF00FE0F00406820B1034BC01AA4
:1025100040F38F0070474FF0FF307047680210287B
:102520000EB403B503AB53F8042B014604480193E2
:1025300001F0C4F802B05DF804EB03B0704700BFCF
:10254000F1761000CA0605D48B064CBF0249034938
:10255000FFF7E6BF704700BFCDB01000E8A810003D
:102560002DE9F04F89B09B46149B9DF84CA0069333
:10257000159B04460593169B0D469046179E0493A3
:10258000BAF1000F00F09D8006F48073079305F008
:1025900012F806F00209024600283ED02046914972
:1025A000FFF7BEFF0746B9F1000F08D016F0440F41
:1025B00035D12A4620468C49FFF7B2FF074406F082
:1025C000010353B1894B204653F82A20884B89498F
:1025D000002A08BF1A46FFF7A3FF06F48073002BFA
:1025E00049D006F00803002B63D1B8F1000F66D084
:1025F000424620468049FFF793FF0546069B3D442F
:10260000002B6DD1049B002B73D1F30700F1E48004
:1026100031462046FFF796FFD8E00746C3E7774BE1
:1026200018680028CAD0764B4FF47A791B684FF4AB
:102630006161B5FBF3F5B5FBF0F300FB135509FB46
:1026400005F5B3FBF1F2B5FBF0FE4FF03C0C01FBDE
:10265000123100FB1E55B1FBFCF309FB05F5B5FB80
:10266000F0F50CFB131120460091CDE901E5654919
:10267000FFF756FFA2E706F00803EBB1624B2046D6
:1026800053F82A206149FFF74BFF0546B8F1000FC8
:1026900005D0424620465849FFF742FF0544BBF1AA
:1026A000000FABD05A4620465949FFF739FF054481
:1026B000A4E74FF0000BE1E706F00805E6E7454622
:1026C0009CE7BBF1010F069B06D1002B64D1049B54
:1026D000002B7BD000250CE0002BF8D04D485CE0AF
:1026E0004D48069B22464D4904F0F8FB049B002B05
:1026F00068D0DFF82C81DFF82C91049F3146102F31
:10270000204628BF10274FF0000BFFF71BFF5D4549
:1027100045DC059B494620461A78FFF701FF4FF03C
:10272000010B1BF0070F03D141462046FFF7F8FECF
:102730005F453BD9059B4946204613F80B20FFF720
:10274000EFFE0BF1010BBBF1100FEAD14FF0000BC4
:1027500020463549FFF7E4FE5A46059B20469A5C21
:10276000A2F120015F2928BF2E223049FFF7D8FEB1
:102770000BF1010BBBF1100F1DD01BF0070F03D1A4
:1027800041462046FFF7CCFE5F455A46E5D8414614
:102790002046FFF7C5FEEBE71F485546A1E7414637
:1027A0002046FFF7BDFE0BF1010BB0E720462049A4
:1027B000FFF7B6FEC5E7059B3B440593049BDB1B77
:1027C00004939AD1BAF1000F7FF41FAF204609B0ED
:1027D000BDE8F04F04F07FBF2046054A0549FFF7EA
:1027E0009FFE15E7F0A81000F4A8100064991000EF
:1027F000EBA8100019A910001CA91000580E1028F1
:10280000540E1028FDA810007899100020A910007F
:1028100026A910001F771000F1761000BD361000B9
:1028200022B310002BA9100031A9100033A9100009
:1028300087A7100042F20F7373B58B4228BF0B4677
:1028400005680446052168460D4A03F0DBFD06468F
:10285000636828460B225B680A4904F02FFF63680F
:102860003246694628465B6804F028FF63681B22ED
:1028700028465B68044904F021FF02B070BD00BF28
:1028800008A7100052A9100036A91000002101234A
:10289000064A904206D8064A01B901231360054B47
:1028A00018607047012140085B00F2E740420F00CA
:1028B000540E1028580E1028F8B50D460446064F41
:1028C0004618B44201D12846F8BD14F8011BBB6874
:1028D00001485B689847F4E764951000014B03607A
:1028E00000207047C09910002DE9F84305460C46BA
:1028F00000AF002948D0DFF8B890D9F800305A0767
:1029000042D0D1E900016E468AB06A46A3684FF012
:102910000508DFF8A0C0C2E90713C2E905C042F804
:10292000108F00234FF421514846FFF71FFDD9F8BF
:102930000030B5465B0727D0D4E903018AB06A4668
:102940006369DFF874C0C2E90713C2E905C042F841
:10295000108F002348464FF42151FFF707FDD9F8A7
:102960000030B54658070FD0E36901214846134AA5
:1029700004F09AFED9F80030590705D0A369012167
:1029800048460F4A04F090FE012D0AD1EFF305836B
:1029900007480268520704D00A4A2946103B04F04F
:1029A00083FE2146284602F087FCBD46BDE8F88339
:1029B0008002102898A91000C7A91000F6A91000DD
:1029C00005AA100033AA100008B5034B1B689847EE
:1029D000BDE8084000F026B81801102830BFFFF706
:1029E000FDBF00BF2DE9F04105460B4EDFF82C80FE
:1029F000324606EB0807CC1B2046094906F09EFC30
:102A0000A01942460021083C06F0BFFC2C6707F1E4
:102A10000800BDE8F08100BF0000000008000000D1
:102A2000C0981000074A936893F90E10002907DB3D
:102A3000526993421FBF044A536843F08053536066
:102A4000704700BF040F102800ED00E0F8B52D4CD2
:102A5000064623680D465B0703D020462A4904F04A
:102A6000CDFE2A4B9B6ADF0649D52368580703D061
:102A70002749244804F0C2FE1120244B9B6A190701
:102A800007D523685A0703D022491E4804F0B6FE32
:102A900012201E4FBB6A9B0719D52368590703D024
:102AA0001D49184804F0AAFE7B6BBA6A12060DD5C0
:102AB0002268570704D00121184A124804F0F4FD97
:102AC00026B1124A936A23F08003936213200F4BBE
:102AD0009B6ADE0707D52368590703D010490948C8
:102AE00004F08CFE1420094B9A6AD20658BF9A6AE9
:102AF0009A6A42F0FF029A6200232B70F8BD102000
:102B0000BBE700BF8002102846AA100000ED00E0DD
:102B10005CAA10008FAA1000A2AA1000BAAA100086
:102B2000D0AA100010B5334C2368580703D02046B4
:102B3000314904F063FE314B9B6A990157D52368F4
:102B40005A0703D02E492B4804F058FE1E202B4B69
:102B50009B6ADB0107D52368580703D0294925481C
:102B600004F04CFE1F20254B9B6AD90207D5236831
:102B70005A0703D024491F4804F040FE20201F4B71
:102B80009B6A1B0307D52368580703D01F491948C0
:102B900004F034FE2120194B9B6A590307D52368A2
:102BA0005A0703D01A49134804F028FE2220134B79
:102BB0009B6A9B0307D52368590703D015490D4825
:102BC00004F01CFE23200D4B9B6ADA0307D5236813
:102BD0005B0703D01049074804F010FE2420074A81
:102BE000936A6FEA03436FEA1343936210BD1D209B
:102BF000ADE700BF80021028EFAA100000ED00E052
:102C000007AB10001AAB100034AB10005EAB100025
:102C10007CAB1000A1AB1000BBAB1000F8B5314C81
:102C2000064623680D465B0703D020462E4904F074
:102C3000E5FD2E4B9B6ADF0451D52368580703D06E
:102C40002B49284804F0DAFD1720284B9B6A190508
:102C500007D523685A0703D02649224804F0CEFD41
:102C60001820224FBB6A9B0519D52368590703D04A
:102C700021491C4804F0C2FDBB6BBA6A12040DD591
:102C80002268570704D001211C4A164804F00CFDA5
:102C900026B1164A936A23F4004393621920134B1A
:102CA0009B6A5E0507D52368590703D014490D4870
:102CB00004F0A4FD1A200D4B9B6ADA0507D52368A2
:102CC0005B0703D00F49074804F098FD1B20074A13
:102CD000936A43F47F43936200232B70F8BD162060
:102CE000B3E700BF80021028E6AB100000ED00E063
:102CF000FCAB10008FAA10000DAC100026AC100029
:102D00003BAC100056AC10002DE9F0478AB0774B71
:102D10000446D3F804908A461646002500AFC9F34E
:102D2000080885F31188BFF36F8F02F07F43B3F17A
:102D30007F4F21D1D3071FD4500603D411070BD4E2
:102D400001250BE06A4803685A0702D0694904F07C
:102D500055FD16F0040600D0544600250023FB71F3
:102D6000A8F10303092B00F29B80DFE803F0078D35
:102D700090899999999999932C46EFE75C4E33681D
:102D80005B0703D030465C4904F038FD0023FB713B
:102D9000564BDA6A900708D53368590703D057496C
:102DA000534804F02BFD002333E0DA6A002A04DAEA
:102DB00033685A07F7D05249F2E7DB6A5B00F2D575
:102DC0003368580703D04F49494804F017FD474B73
:102DD000A1695A6942F480725A61BFF34F8FBFF301
:102DE0006F8F5A6931F8021C22F480725A61BFF366
:102DF0004F8FBFF36F8F4DF6027291422BD1336824
:102E0000590705D0236801213F4A394804F04CFC9A
:102E10002368FA79DAB907F1080604F1200C324682
:102E200020686168083403C264451646F7D17A6A9F
:102E3000002D56D0C2F3080121B96FEA52226FEA81
:102E400042227A62184607F10801FFF74DFD283744
:102E5000BD46BDE8F0879A6AD2B222B10120F91DC1
:102E6000FFF7F4FD0EE09A6A12F47F4F04D00120C0
:102E7000F91DFFF7D3FE05E09B6AB3F5803F92D3BF
:102E8000FFF750FE0346C4E70020F91DE8E70020E5
:102E9000F91DEEE7164803685A0784D01B4980E7FE
:102EA000134803685B073FF47EAF194A6E4619F476
:102EB000F87F8AB0174B18BF13466A461649C2E915
:102EC0000513A8F11003D3614FF400731384134B5F
:102ED00042F8103F00234FF41151FFF747FAB5466F
:102EE00061E722F4FF7222F00102AAE700ED00E0A0
:102EF000800210289CAC1000BFAC1000D6AC1000B3
:102F0000F7AC100005AD100024AD100040AD10006E
:102F100083AC10006EAC100064AD10000400000122
:102F2000024A536943F010035361704700ED00E01B
:102F3000EFF30880EFF3098101B57246FFF7E4FE75
:102F400001BD00BF002080F31488BFF36F8F002005
:102F500080F30A8880F30B8800200E490860BFF3D5
:102F60004F8F0D4880F3088800F02CF8202080F364
:102F700011880A484FF40061401880F30988EFF384
:102F800014800221084380F31488BFF36F8F00F090
:102F9000E5F8000094ED00E040BB102840921028B6
:102FA000002318460649D1F89020C2F30722934225
:102FB00000DB7047C1F89830C1F8A0000133F6E794
:102FC00000ED00E010B572B6002484F31388FFF71B
:102FD000E7FF23464FF0FF300C4A03F12001013395
:102FE000102B42F82100F8D100234FF0FF30074AA0
:102FF00003F160010133102B42F82100F8D162B6D1
:10300000BFF34F8FBFF36F8F10BD00BF00E100E033
:10301000084B9B6883420BD1EFF3058343B1064B0A
:103020005A6842F080525A605A6A22F400425A6248
:1030300006F0A2B8040F102800ED00E06FF00A01BE
:10304000084A93689967084958674B6843F080536A
:103050004B60002383F31188BFF36F8F9368986FE1
:10306000704700BF040F102800ED00E0104A93687D
:1030700083F87D00EFF31183202383F31288BFF3DD
:103080006F8F4FF00061536920F0FF009360094A91
:103090005160196F084A1160002193F87D20104398
:1030A0005A6F596782F31188BFF36F8F704700BF63
:1030B000040F102800ED00E0800E10280C498A68EB
:1030C00082F87DE04FF030001044EFF3098C80E887
:1030D000F01F74467046FFF7C9FFA64604498A6888
:1030E000864602F1300090E8F01F8CF309887047A3
:1030F000040F10281EF0040F0CBFEFF30880EFF34D
:103100000980816911F8021C0229FFD001B504F081
:1031100071FB01BD40B2002807DB01234109034ACE
:1031200000F01F00834042F82130704700E100E0CA
:1031300040B2002801F10101ACBF00F16040064B34
:103140004FEA4111C9B2ABBF00F5614000F00F007A
:1031500080F800131954704714ED00E008B5084BCF
:10316000084A23F07F039360BFF34F8FBFF36F8F45
:1031700002F0A0F902F0DEFE00F04AF802F0E4F9F5
:103180000004100000ED00E042F8203C009B0C49D8
:1031900042F81C3C019B21F0010142F8183C029BC3
:1031A00042F8081C42F8143C4FF0807342F8043C8B
:1031B000002343674FF43C43203A0265C3677047DE
:1031C000191A10000B4B0E469860016F0A4B1546FA
:1031D00019602C4686F309884FF00000074B98478A
:1031E00020464FF000014FF000024FF00003044C66
:1031F000204700BF040F1028800E102811781000FF
:10320000191A10001022014B1A61704700ED00E0FE
:10321000002320210348C2180133602B82F80013D9
:10322000F9D1704700E100E008B5EFF30583064AE5
:10323000103B02EBC30152F8330049688847BDE8F0
:103240000840FFF7EFBB00BF789510001FB5094C91
:10325000094A23460121094800F01CF90023039381
:10326000074B0121E41A01A80193029400F01CF914
:1032700004B010BD0000182800001028C0991000EC
:10328000C002102810B50C7A0B6804F01F0223F05E
:103290001F031A43CB68640923F01F03054943EA5F
:1032A000440343F00103C1F89800C1F89C20C1F821
:1032B000A03010BD00ED00E010B50C4B0446D3F873
:1032C0009030C3F30723013B98420BD908480368A9
:1032D0005B0704D001212346064A04F0E5F96FF0AC
:1032E000150010BDFFF7CEFFFBE700BF00ED00E0CB
:1032F0007C0210287BAD10002DE9F04F8946144662
:1033000006464FF00008544D85B0C8452EDAD6F871
:1033100004A0BAF1000F4BD0BAF11F0F1BD91AF05D
:103320001F0F18D1D6F800B01BF01F0F13D158464D
:1033300004F082FA07460AEB0B00013804F07CFA2D
:10334000874217D06FF01507444803685B070BD01E
:10335000434A3B4605E0414803685A0704D04346C8
:10336000404A012104F0A0F96FF01504204605B091
:10337000BDE8F08F17F1160FE6D0BC42E4DDC5F8CA
:103380009870D5F89C10C5F89870D5F8A03021F049
:103390001F0143F01F0BD6E900321A44994202F193
:1033A000FF3A1DD1D34507D13146F8B204F04DFAAA
:1033B00008F101080C36A8E73146C5F89870D5F831
:1033C0009C3022F01F0203F01F031343C5F89C300A
:1033D000E0B204F03AFA10F1160FC5D0441CE7E74A
:1033E000C5F89870D5F8A020013B23F01F0302F028
:1033F0001F021343D3453146E0B2C5F8A030E8D0F0
:1034000004F023FA10F1160FAED0C5F89870D5F875
:103410009C209DF808300BF1FF3B62F304038DF80C
:103420000830D5F8A0309DF808205B0863F34712F8
:103430008DF80820D6E900321344009323F01F03CF
:103440005B44A3EB0A03013023F01F036946C0B2BB
:103450000393FFF731FFBEE700ED00E07C02102888
:10346000C4AD1000A1AD10000522044BC3F8942098
:10347000BFF34F8FBFF36F8F704700BF00ED00E0C9
:10348000BFF35F8F0022024BC3F89420704700BF48
:1034900000ED00E010B5034C2278FFF72DFF2070FF
:1034A00010BD00BF370F10282DE9F74F294D8A4670
:1034B00006464FF00008AB46274FD0451BDAD6F83A
:1034C0000490B9F1000F3FD031680846019104F033
:1034D000B3F90199044609EB0100013804F0ACF995
:1034E00084424FF014021D4B08D002FB08F36FF02A
:1034F00015024BF8032003B0BDE8F08F14F1160F4E
:103500002C60F8D01978A142F5DD02FB08B0C7F8AD
:103510009840C7F89840D7F89C4000F10801007B1C
:1035200064F304000871D7F8A0000C79400860F338
:1035300047140C71D7F89C1021F01F016960D7F86F
:10354000A01021F01F01296108F1010814350C3683
:10355000B3E700BF840E102800ED00E0370F1028FD
:10356000F0B54549454CD1F890302568C3F30723A1
:103570009D4287B07DD80020FFF782FF404BC1F805
:10358000C030854216D13F4C01A82570FFF7A6F93F
:10359000002506463C4FAE4213D100202378364921
:1035A000D1F89020C2F3072293425CDBFFF75CFF67
:1035B000002056E0616801EB0011FFF763FE013067
:1035C000DFE70199280101EB0513DA683A40B2F50B
:1035D000001F22D0B2F5800F2CD0B2F5801F36D15B
:1035E0005A689B680958013B22F01F0003440120E0
:1035F000844623F01F0340EA4C10CDE902218DF8E8
:10360000100002A920780593FFF756FE002826DB5C
:103610002378013501332370BDE75A689B68095848
:10362000013B22F01F0003444FF0020C012023F065
:103630001F03E0E75A689B680958013B22F01F000E
:1036400003444FF0000C062023F01F03D3E70F487C
:1036500003685B0703D001210D4A04F01CF86FF0EA
:10366000150007B0F0BDC1F89830C1F8A0000133D3
:1036700096E74FF0FF30F4E700ED00E0CC99100042
:10368000AAFF4400370F10280000F0FF7C0210282A
:10369000E7AD100008B5024B1B689847002008BD35
:1036A000980E1028034B044A1860937843F00203E5
:1036B00093707047980E10281C011028F0B587B041
:1036C00007460E4614460021102268461D4605F0A6
:1036D0005CFE02238DF80230054B2A4621466846DF
:1036E000CDE90476019302F0B9FE07B0F0BD00BF4A
:1036F0007D78100008B5024803F048FCFEE700BFE3
:1037000018AE100008B50649064821F00701C1F1BE
:10371000205202F5C01203F089FB002008BD00BF53
:1037200047CB10289C0E10284FF0FF324FF0FF338C
:10373000014801F073BF00BF2C011028014801F0BF
:10374000E5BF00BF2C01102838B50546FFF7ECFF98
:103750002A460821074803F0F5FA044628B925B19E
:1037600005F038FE0C22044B1A50FFF7E7FF204605
:1037700038BD00BF9C0E10280C00000010B5044698
:10378000FFF7D2FF2146034803F093FABDE810404B
:10379000FFF7D4BF9C0E102870B5A0FB01543CB9B4
:1037A0002846FFF7D1FF064640B90026304670BDD7
:1037B00005F010FE0C22044B1A50F6E72A4621466B
:1037C00005F0E3FDF2E700BF0C0000004FF6310208
:1037D000064B00209A614CF26F4203F580539A61C8
:1037E0004FF49E5203F580539A61704700001040D9
:1037F00008B5074805F0B1FB38B10648FFF752FF9E
:103800000448FEF703F9002008BD6FF01200FBE743
:1038100064951000193810000A2838B50446074D81
:1038200004D1AB680D2128465B689847AB68034814
:103830005B68E1B29847204638BD00BF6495100030
:103840004FF0E02310B50F499C691A6908689B691D
:103850000D4902F4803234B993B903464AB90A6873
:103860001044C01A10BD002B08BF03460AB9A3427A
:10387000F5D90A6802440A604FF0E0221269EEE7C7
:103880000446F3E7E40E1028D80E102820220A4B35
:10389000002083F8232046F2A812084B1A60084B38
:1038A00046F2A71218604FF0E0235A6198611A6936
:1038B00042F007021A61704700ED00E0E40E1028A4
:1038C000D80E102808B5FFF7BBFF0C4B0C4A186840
:1038D000116808441060002246F2A8111A60094AD3
:1038E0001368C01AB0FBF1F001FB0033136002F063
:1038F000FBFBBDE80840FFF795B800BFD80E1028C5
:10390000E00E1028DC0E10282DE9F041324E91B166
:10391000421C0AD14FF0E022136923F00103136126
:103920004FF07F433360BDE8F0813468012807DC45
:103930004FF000080BE0431C3468F7D140F29E20A2
:1039400040F29F239842A8BF184600F1FF38EFF3DA
:103950001185202383F31288BFF36F8FFFF770FF69
:103960004FF0E0230022DFF874C09F69DCF80030DC
:1039700018441B4B1A601B4B1A68831A29D446F251
:10398000A81E0EFB083303F5C3432733B3FBFEF138
:10399000131A40F21A620EFB0133934238BF1346EA
:1039A000114A934228BF13464FF0E0223360013B97
:1039B0009169536100238F42A7EB010738BF3F197C
:1039C00038449361CCF8000085F31188BFF36F8F02
:1039D000A9E740F21A63E7E7E40E1028E00E10288A
:1039E000D80E1028DC0E1028B095FF0038B5EFF384
:1039F0001185202383F31288BFF36F8F084B1C6857
:103A0000084B1B68E41AFFF71BFF85F31188BFF30F
:103A10006F8F46F2A8132044B0FBF3F038BD00BF0F
:103A2000E00E1028DC0E102830B5074C25682468FD
:103A30006A40D2B2891A101A090A41EA1021634079
:103A400023EA0100C0B230BDE80E10282DE9F0478E
:103A5000012A8246DDE908490E4690461F4644D8B1
:103A6000043004F0DDFC0546504604F045FD012815
:103A700082463CD1002106F1100004F025FD48B932
:103A8000B9F1000F02D11B48BDE8F0872070C7F8DC
:103A900000A0F9E7B8F1000F17D16B0001334B45D7
:103AA0003B60F0D8214604232A46304601F8013B0A
:103AB00004F0BCFC0028E7D12A46691C214406F129
:103AC0000800BDE8F04704F0B1BC6B1C4B453B60FF
:103AD000D9D8002106F1080004F08EFC21460230FE
:103AE00001F8010B2A463046EBE70348CCE70348D0
:103AF000CAE700BF00B1FFFF80B0FFFF80B1FFFF4A
:103B0000082804D00928034818BF0020704702483D
:103B1000704700BF8AAE10008DAE100001680E4ADB
:103B20000346914215D1C169A2F11022A2F1EF1210
:103B300091420ED18268012A0BD8C26812B1016984
:103B40008A4206D0586928B19B691B1A58425841CD
:103B500070470120704700BF55AA00FF70B50D4B9C
:103B60009E68A6B13046FFF7D9FF044678B9F368DE
:103B70006BB935690DB9204670BD2846FFF7CEFFF9
:103B800028B9EB68B34202D12E462D69F2E7012431
:103B9000F1E700BFEC0E10282DE9F8433F4F3C68D9
:103BA000D4B1BC68C4B100284AD0002948D001FB78
:103BB00000F5B5FBF0F0884242D1281D40D8A90796
:103BC0000DD025F003060436FC6803E06368B342B9
:103BD00038D2A469002CF9D12046BDE8F8832E46DE
:103BE000F2E7FB6041E006F120016318203A5A60D9
:103BF0000022C3E902242A4822691A616050294937
:103C0000D96102B1D36062695A61A1699961AAB1AF
:103C100093619A6902B153614FF001092361002356
:103C2000C4E90169C4E905333B69DB072ED5FFF719
:103C300095FF58B31C4B48461B6826E0FB60E8E73D
:103C40000024C9E7A3681BB1174B01201B689847E4
:103C5000626804F12008921B232AC4D80123A360C0
:103C6000D4E90523002ABCD09361A3690BB1626932
:103C70005A610023C4E905333B69DA0706D5FFF72B
:103C80006DFF18B10120084B1B6898472A46002198
:103C90004046444605F079FB9EE700BFEC0E102835
:103CA00055AA00FF669911EEF801102870B5054677
:103CB000002800F08880444E3368002B00F0838099
:103CC000B268002A7FD0834203D8726813449842B6
:103CD00003D33E4B01201B689847A5F120042046E2
:103CE000FFF71CFF18B1394B01201B68984755F8A6
:103CF000183C012B03D0354B01201B68984700234B
:103D000045F8183C55F8143C3BB39A682ABB55F863
:103D10001C2C02F120015A680A445A6055E9053208
:103D20001A6155F8145C2B6903B1DD602022002173
:103D3000204605F02AFB286910B18368002B2ED09D
:103D400033699B073FD5FFF709FF00283BD0BDE84B
:103D500070401E4B01201B68184755F8100C0028B6
:103D60002AD0836843BB426863681344203363608E
:103D700003692361D4E905239AB9CBB94369636127
:103D80008269A261B3B19C61A36903B15C612369DB
:103D900003B1DC602022002105F0F7FAD0E72C46C1
:103DA000E1E79361A369002BE8D062695A61E5E716
:103DB000F360F7E7F460E7E7F36845F8083C03B120
:103DC0005C61F460BCE770BDEC0E1028F8011028AF
:103DD00038B50C46142200210546134805F0D5FAE3
:103DE0001249134800F0A2F8232C1CD915F0030344
:103DF0001FBF043CE418C3F10403ED182246002160
:103E0000284605F0C2FA084B0A49C3E90054203C91
:103E10009D606C609A6811609A68A1F11021A1F10F
:103E2000EF11D161DA6038BDEC0E1028AD3C100006
:103E3000993B100055AA00FF0346002070B518609A
:103E40000A266FF067000D4D0C68944203D2247867
:103E5000303C092C00D970BD1C68AC420BD87443AF
:103E60001C60086800782044303818600868013009
:103E700008600020E8E76FF06700ECE7999999196E
:103E800070B5094C256815B96FF02D0009E0667C06
:103E9000864207D1267C8E4204D1002015606268DC
:103EA0001A6070BD1434EDE7D09B100030B5084B9C
:103EB0001C6814B96FF02D0006E01D7C854204D10A
:103EC00000200C605B68136030BD1433F0E700BF66
:103ED000809B100030B5084B1C6814B96FF02D00A2
:103EE00006E01D7C854204D100200C605B681360F5
:103EF00030BD1433F0E700BF589B100010B50A46E0
:103F0000044619B1024B00211B68984710BD00BF41
:103F1000F4011028014B1B68184700BF000210284D
:103F2000014B1B68184700BFFC011028024B1860AA
:103F3000024B00201960704700021028FC01102875
:103F400000F19903142B1AD8DFE803F01717191999
:103F500019191917191919191319191B150B0F0DFF
:103F600011000948704709487047094870470948D7
:103F7000704709487047094870470948704704F07E
:103F800005BC0848704700BF00C3FFFF80C6FFFFA5
:103F900080C5FFFF00C1FFFF80C0FFFF80C1FFFFA2
:103FA00000C2FFFF80C7FFFF2DE9F74F00F1080AAD
:103FB0000446DDE90C980D465046002117461E4682
:103FC00004F082FA10B97FB32D4837E004F1200BDA
:103FD0000021584604F078FA0028F4D004F12803B0
:103FE00000211846019304F06FFA0028EBD000215D
:103FF00004F1180004F068FA0028E4D0002104F16C
:10400000100004F061FA0028DDD025B151462846A1
:1040100004F0BDF990B9DFB90EBBB9F1000F09D0BA
:10402000484604F118010EE0002ECDD1B9F1000F81
:10403000CAD135B9B8F1000F19D1404603B0BDE877
:10404000F08F5146284604F0A2F90028F2D0F5E797
:104050005946384604F09BF90028DDD0EEE730469B
:1040600004F1280104F093F90028D6D0E6E7404691
:1040700004F1100103B0BDE8F04F04F088B900BFAF
:1040800080BFFFFF08B54FF400410248FFF7A0FED4
:10409000002008BD380F10282DE9F04F0F460021F1
:1040A000054687B00846009390469B46134605AAEE
:1040B000109E04F06DF82846FCF782FA0446384654
:1040C000FCF77EFA059902290A4638BF02224B1CEA
:1040D000023A03EB921323441844119B984207D9E8
:1040E0006FF02908129B1860404607B0BDE8F08FBA
:1040F00039B10120FFF70EFF044618B9DFF8A080A0
:10410000F2E70C46434620460599CDF800B005AAD3
:1041100004F03EF8804618B12046FFF701FFE3E7C0
:104120002846FCF74DFA29460246304605F006F9C6
:104130002846FCF745FAA1464FF00A0A3518DDF883
:1041400014B0BBF1000F18D13846FCF739FA3946E4
:104150000246284605F0F2F83846FCF731FA0246E6
:104160002B18581C129B05F802B0821B1A60119B79
:1041700059469A1A05F009F9CEE75A46402A28BF4F
:10418000402249462846039205F0D8F8039AABEB43
:10419000020015440590914405F801ABCFE700BF3C
:1041A00080EEFFFF2DE9F0414FF00008ADF5087DEE
:1041B00004AC154606460F4607CA84E807002046A9
:1041C000CDF80C8004F02BFD02380228284698BF59
:1041D000D4F8048004F023FD072813D14FF40472AF
:1041E0002146A86803AB00F05DFE10BB039A30685F
:1041F000801A2146306005F0A1F803980DF5087D7E
:10420000BDE8F0814FF404730022CDE9004340463D
:1042100003AB08F16801FFF719FC0028EED1306804
:10422000B84203D3039AC71B9742E1D26FF06B00E9
:10423000E4E70148E2E700BF80C1FFFF7FB5064623
:1042400010460D46144604F0EAFC012815D194E806
:10425000070001AB83E80700184604F0E0FC0128E2
:1042600018BF00203246294608BF029804F063FBBD
:10427000002818DB0346184615E0204604F0CFFC62
:10428000022805D1224629463046FFF78BFFEFE78B
:10429000204604F0C4FC07281BD100233268019398
:1042A000954202D90C4804B070BD2946A06801AB04
:1042B000521B00F0F7FD0028F4D13068019A29461E
:1042C000801A306005F047F8019B002B1846D2DABF
:1042D000E9E70248E7E700BF80C1FFFF80C6FFFFB4
:1042E000F0B5054687B00E4618220021684605F055
:1042F0004CF81DB9114C204607B0F0BD2B68002BBF
:10430000F8D16946304600F0ADFD04460028F1D1F1
:10431000BDF80070684604F01BFE27F0FF03B3F5FC
:10432000E24F07D047F201039F4205D1044B2B60B7
:10433000AE60E0E7034BFAE7034CDCE780C1FFFF28
:10434000489C1000789C100080C6FFFF2DE9F74FB5
:104350001646DDE90C89DDE90EAB04460D46109AE0
:10436000E1B92BB9036803BB164803B0BDE8F08F71
:10437000002EF9D001680029F6D021684F69FFB1FD
:10438000CDE90FB2294632462046BC46CDE90D9A0A
:10439000CDF8308003B0BDE8F04F6047002EE3D089
:1043A00001680029E0D0002BE7D128460192FFF7F1
:1043B000A7FB04F0AAF8019A03460028DDD1D3E751
:1043C0000148D2E780C1FFFF00C1FFFF2DE9F047A0
:1043D0001746182205468CB00DEB02000E46002150
:1043E000984604F0D2FFA86806A900F03BFD0446F9
:1043F00030B1FFF7A5FD034618460CB0BDE8F087C5
:1044000006A8BDF81890DDF824A004F0A1FD44F240
:10441000010329F44059994515D1149BCDE9004475
:104420000493159B3246CDE9028351463B46A8686A
:1044300000F076FE03460028DED00822034B044934
:1044400004F0C1F9D7E7034BD6E700BF413F1000A6
:10445000C09E100080C6FFFF2DE9F04305468BB0DB
:10446000884616460021182204A81F4604F08DFF36
:10447000A86804A900F0F6FC30B1FFF761FD03461F
:1044800018460BB0BDE8F08304A8BDF81090079C57
:1044900004F05EFD44F2010329F44059994519D115
:1044A000149B24F0FF040293139B44EA0801019338
:1044B000129B32460093A8683B4641F0007100F021
:1044C000D9FD03460028DBD00822034B034904F042
:1044D0007AF9D4E7024BD3E7413F1000C09E1000A9
:1044E00080C6FFFF2DE9F04F04468BB00E46DDE994
:1044F000149A0021174604A818229846169D04F025
:1045000044FF204604A900F0ADFC38B10722194B46
:10451000194904F058F90BB0BDE8F08F04A8BDF8B4
:1045200012B004F015FD46F0C06143463A462046FD
:10453000CDE901A5CDF8009041F4E06100F09AFDCD
:10454000034670B18533E1D143463A462046CDE972
:1045500001A5CDF8009046F0062100F08BFD002863
:10456000D4D1CDE900A54B46494658462A6804F007
:1045700046F9D0E7413F1000A49E10002DE9F0431A
:104580001E469BB00746884614460021182204A800
:1045900004F0FBFE0023F51DED0802936D0024B925
:1045A0002A4C20461BB0BDE8F0834FF006294FF49B
:1045B000005144F4824404A8ADF8104004F034FBE8
:1045C0004246394602ABCDF81C9000F001FC48B1E0
:1045D000FFF7B6FC0546029800F026FC04463DB302
:1045E0002C46DEE7402D03D9029800F01DFCD7E7EA
:1045F00003AB01934023DDE924120AAF0093304658
:104600003B4604F048F90446029814B100F00CFC53
:10461000C7E7039BAB42E8D1CDE90073DDE9222374
:10462000494600F055FD50B9029800F0FDFB0446E4
:10463000002CB6D02046FFF783FC0446B1E70722E2
:10464000034B044904F0BFF8C4E700BF80C1FFFF7B
:10465000413F1000A49E10002DE9F04105469CB09A
:104660000021164605A818221F4604F08EFEA868F1
:1046700005A900F0F7FB38B10722144B144904F0E8
:10468000A2F81CB0BDE8F081BDF8144005A804F400
:104690004F43B3F5824F18BF0024BDF8168004F0D5
:1046A00057FC4122A86804AB0BA900F0FBFB0028D3
:1046B000E2D1239B04990393229B0096CDE90173D9
:1046C000E2B243460BA8FFF759FFDAE7413F10007B
:1046D000A49E100070B5002305460846A6B0CDE99B
:1046E00002334122806802AB04A900F0DBFB0646DE
:1046F00018B1FFF725FC26B070BD15AC95E8070092
:1047000084E80700204604F08AFA0238022898BF9D
:10471000169E95E8070084E80700204604F07FFA1B
:104720000238022888BF00214FF0410398BF169934
:10473000CDE900430022304603AB6831FFF786F92C
:104740000028D8D1DDE902239A4208D1214604A8E5
:1047500004F063FD034B002818BF1846CBE701485F
:10476000C9E700BF80C1FFFF2DE9F04FCBB0029039
:1047700008460C46FBF724FF00260523271802985D
:10478000CDE9073609960596254603F039FB4FF02B
:10479000010BB046DFF820A2BD4206D909980028D7
:1047A00039D150464BB0BDE8F08F2B78BBF1000FEC
:1047B00000F0F0803D2B40F0D580804E2A1BD6F8CB
:1047C0000080B8F1000F07D1214607A803F0C5FE0D
:1047D000002800F0DD80ECE073689A4208D12146A1
:1047E0004046039204F036FD039A002800F0BF8093
:1047F0001036E4E72378232B77D12B1B591E11F0B9
:10480000010B05D1033BB3F5027F4FEA510905D3F4
:10481000DFF8A4A10998FFF783FBC2E7494601200E
:10482000FFF778FB824600285CD0B9F1000F0ED16B
:10483000534613F8014B05AA0AEB090106A8069393
:1048400003F096FA90B15046FFF76AFBE0E70134B7
:10485000204604F033FA0028F5DB0AF80B000BF1D0
:10486000010BD94504F10204F2D1E1E7059AB2F552
:10487000807FE8D81F2C069907D8514BE340D80712
:1048800003D50B465018984226D10AA804F056FDCD
:104890005046FFF745FBDDE90821059B0298009390
:1048A0000AAB03F0EFFB82460998FFF739FB0023C0
:1048B0000993BAF1000F57D02B46CAF80C401D4699
:1048C0000133AF421C4602D06A78202AF7D04FF05D
:1048D000010B4FF0000A45E013F801CBBCF1000FCB
:1048E000D1D1B0E7DFF8DCA094E7002E5ED10DF166
:1048F0002809CB46A54205D8A9EB0B03D8F80C40F4
:104900000593C8E721785C2926D1A21C954204F1C1
:10491000010A039213D9504604F0D0F9431C0ED07B
:10492000002843D0039A09F1010CC1B2ACEB0B0C87
:10493000BCF5807F09F8011B38D0541CDAE75545D7
:1049400034D961782048039104F077FC70B3524663
:10495000039909F1010CE9E7224609F1010CE5E7A9
:104960004FF0000B013517E7DFF858A019E7039067
:10497000B068FBF725FE014608900120FFF7CAFA50
:10498000089AB168099004F0D9FC039BB0469B4695
:104990005E466C1C2B782C2B03D115F8013C5C2B4C
:1049A00001D1BD42DCD1A5427FF424AF0998FFF7C5
:1049B000B7FADFF804A0F4E680DCFFFFA89C100043
:1049C0000010585080D7FFFFA4B610002DE9F04F1B
:1049D000074699B00D4601204FF4806114460993B3
:1049E000FFF798FA8046002800F0208100230B93FF
:1049F0003B7A29460893FA682B190CA807930C9365
:104A000004F01EFA041EC0F2F68000F0FB8022467D
:104A100029460CA803F018FAA146041EC0F2EB8048
:104A2000302229460DEB020003F032FA061EC0F2D6
:104A3000F480A1444E44324629460CA803F004FAFF
:104A4000041EC0F2D880312229460CA803F020FAB7
:104A5000B0F10009C0F2DD8009232946744A0CA890
:104A600003F0B3FA0028C0F2D68026444E4400EB8F
:104A700006094A4629460CA803F0E6F9041EC0F2CE
:104A8000BA80302229460DEB020003F001FA061E1F
:104A9000C0F2C380A1444E44324629460CA803F01C
:104AA000D3F9B0F1000AC0F2B280A02229460CA8C6
:104AB00003F0EEF9B0F10009C0F2AB800C9A294680
:104AC0003868521B03F0FCFF041EC0F294800C9B5C
:104AD00029461B1B7A680CA80C9304F001F9A34625
:104AE000041EC0F28880002229460CA803F0B5FA03
:104AF0000028C0F2908056444E445E44264400EBA9
:104B000006094A4629460CA803F09EF9041E72DBEA
:104B1000302229460DEB020003F0BAF9061E7CDBB9
:104B20000FAB019320230898A1444E4400933246D2
:104B300010AB0C9940F0007000F070FA03460028AA
:104B40006DD1229A0492099A03920EAA02924FF40E
:104B50008062CDE9008210AA397A386804F04DF8F5
:104B60000446002847D10121386804F03DF80028A8
:104B70004AD10421386804F037F8002852D04FF0A9
:104B800004094846397A0BAB0AAAFFF779F90446BB
:104B900088BB32460C99284604F0DDFB079BCDF814
:104BA00008900D930E9BA919CDE90083DDE90A2336
:104BB0000DA804F0FBF8041E1DDB0D983246801B87
:104BC000294626440D9004F0C6FB324629460DA81E
:104BD00003F03AF9041E0EDB302229460DA803F03B
:104BE00057F9071E20DB0D9A00212846521B04F0BE
:104BF000CCFB34443C444046FFF792F9204619B0C0
:104C0000BDE8F08F264647E74FF00109B9E7544663
:104C1000F1E74C46EFE70446EDE73446EBE76FF08B
:104C20006F04E8E7034CE6E73C46E4E7024CE5E7BF
:104C3000C3B6100000DDFFFF80D7FFFF70B5002670
:104C400086B005960A9E0C4600961546FFF7BEFEF6
:104C500000280ADB2A1A05ABCDE9015304490346B3
:104C6000009404482244FFF717FA06B070BD00BF55
:104C7000CDB61000F0B610002DE9F0411F46164BDE
:104C8000044693F800800D461646A2B0B8F1000F16
:104C900015D1684602F0B6FD3A4631462846289BB3
:104CA000A0470446684602F0AEFDB8F1000F02D0FE
:104CB0000A4800F02BFD204622B0BDE8F0814FF0FD
:104CC000FF324FF0FF33054800F0A8FC0028E0D089
:104CD0006FF08304EFE700BF388F10289802102888
:104CE00000B58BB0CDE9020102A904910821CDE9FC
:104CF00005130CAB08930423099300230792CDE915
:104D0000003340F2E931032304AA034800F0A6FA75
:104D10000BB05DF804FB00BF0101004000B589B095
:104D200002AB04930823CDE905320C23079301233A
:104D300006AACDE90201009240F2EB31019304AAE8
:104D4000024800F08BFA09B05DF804FB0101004055
:104D500030B593B005460C462C22002107A804F07C
:104D600014FB40F20123ADF8443006AB029330232C
:104D7000CDE9033404230593012304AA0092002102
:104D8000019302AA0248069500F068FA13B030BDFC
:104D90000001004010B590B004462C22002105A867
:104DA00004F0F3FA40F20133ADF83C3004AB0021DB
:104DB00002933023CDE90011039302AA0123034893
:104DC000049400F04BFA10B010BD00BF0001004089
:104DD0002DE9F0414FF0300896B01C460AAB07466B
:104DE0000E46154600214246184604F0CEFA182316
:104DF000CDE9073604230393012340F201420193D6
:104E000002ABCDE90408ADF8542000930021032340
:104E100004AA044806970995029400F01FFA16B0F8
:104E2000BDE8F0810001004010B590B004462C228E
:104E3000002105A804F0A9FA40F20153ADF83C3076
:104E400004AB002102933023CDE90011039302AAA1
:104E500001230348049400F001FA10B010BD00BF14
:104E60000001004030B593B005460C462C220021CD
:104E700007A804F08AFA06AA02923022CDE9032498
:104E800018220123059204AA00920021019302AA8C
:104E900003480695ADF8443000F0E0F913B030BD9A
:104EA00000010040F0B593B007460E4615460021BC
:104EB0002C2207A81C4604F068FA40F20173ADF8F2
:104EC000443006AB02933023CDE90336012304AA14
:104ED00001930092002102AA04480697059500F06C
:104EE000BDF9059B236013B0F0BD00BF0001004079
:104EF00070B5302692B0044606AB0D46324600210E
:104F0000184604F042FA042322680593089240F2FE
:104F100002220123ADF8442004AACDE90206009242
:104F20000021019302AA03480795049400F096F922
:104F300012B070BD00010040F0B53027064693B0B6
:104F400006AB0D46144600213A46184604F01DFAF9
:104F500032680021089240F20232CDE90207ADF832
:104F600044200223CDE9001102AA0348CDE90454EC
:104F700000F074F913B0F0BD000100402DE9F041DC
:104F80004FF0300894B01D4608AB04460F46164655
:104F900000214246184604F0F8F904232268CDE9BE
:104FA000053702230A9240F20252019304ABCDE985
:104FB0000208ADF84C2000930021012302AA054805
:104FC0000494079600F04AF9079B2B6014B0BDE8E3
:104FD000F08100BF0001004030B5302593B0044699
:104FE00006AB2A460021184604F0CFF904232268B4
:104FF0000593089240F202720123ADF8442004AAFE
:10500000CDE9020500920021019302AA024804940E
:1050100000F024F913B030BD000100402DE9F04349
:105020004FF0300895B00DF1200907460E461546A1
:105030000021424648461C4604F0A7F91C9A022368
:1050400003920122019202AA0092002104AA0848B8
:10505000ADF84C30CDE90498CDE906650997029486
:1050600000F0FCF81D9B039A1A6015B0BDE8F083B0
:1050700000010040F0B51546282295B007460E46BF
:105080000DEB020000211C4604F07FF940F20623DC
:10509000ADF84C3008AB04933023CDE905351A9BAD
:1050A00004AA02931B9B002103930123019302ABEB
:1050B000009306480223CDE90876079400F0CEF865
:1050C0001C9B039A1A6015B0F0BD00BF00010040A0
:1050D000F0B51546282295B007460E460DEB0200A6
:1050E00000211C4604F051F940F20633ADF84C3073
:1050F00008AB029330230021CDE903351A9BCDE99B
:10510000001106931B9B02AA079304480323CDE9D1
:105110000876059400F0A2F815B0F0BD000100403B
:105120002DE9F04397B08046DDE91E490F4616464B
:10513000002128220CA81D4604F027F940F207138D
:10514000CDE90A87ADF8543014B9B9F1000F21D177
:105150000AAB04933023CDE90536209B002C029343
:10516000219B04AA03934FF00103019302AB009328
:105170004FF000010CBF022303230848CDE9075478
:10518000CDF8249000F06AF8229B039A1A6017B0B9
:10519000BDE8F0836FF08600F9E700BF0001004032
:1051A00070B5302692B006AB05460C46324600215B
:1051B000184604F0EAF8CDE90454CDE9020654B1EA
:1051C000012304AA009200210448019302AA00F0DE
:1051D00045F812B070BD2046FBE700BF000100405B
:1051E00070B5302694B008AB05460C463246002117
:1051F000184604F0CAF818230793042303930123E5
:1052000040F60122019302ABCDE90406ADF84C2033
:1052100000930021022304AA03480695029400F09B
:105220001DF814B070BD00BF000100407FB5CDE98E
:105230000423012304AACDE90201009240F2E931DE
:105240000548019302AA00F009F810B9089B059AD5
:105250001A6007B05DF804FB0301004010B4B1F51B
:10526000004F029C0ED2042B0CD8042C0AD8240424
:1052700044EA0364134644EA0102014610BC0348B1
:10528000FFF7FABC6FF0800010BC70476106081091
:1052900010B50446FCF7DCFE054803685B0703D045
:1052A0000121044A02F0F7F9204603F061FE00BF35
:1052B0008002102815B710002DE9F04704460D466E
:1052C00000AFEFF31189202383F31288BFF36F8FB0
:1052D000DFF8CC80334AD8F80030966859075CD0A4
:1052E000042898BF304BEA468AB0117C98BF53F827
:1052F00020306A4688BF2D4BC2E9073140F20133A6
:105300002B4893842B4BC2E9050442F8103F00233D
:105310004FF431512248FDF729F8D54665B1EB69C4
:10532000D8F80020C3F3080333B152071ED001217F
:10533000214A1B4802F0AFF9D8F800305B0715D0BE
:1053400016BB1E48E8468AB06A461D4BD061C2E9CA
:10535000053640F2013313841A4B42F8103F002304
:105360004FF411510E48FDF701F8C5462946204675
:10537000FFF78EFF89F31188BFF36F8F3046FDF77B
:1053800047FEBD46BDE8F087304603F03DFE0028ED
:10539000D7D00378002BD4D0D4E7002DBFD1E5E7D8
:1053A00080021028040F1028789E100024B71000E7
:1053B0003AB710000500000162B7100032B71000C4
:1053C00083B710000400000138B5094B53F82040A2
:1053D000013053F82050A54200D838BD636823B18E
:1053E000204603F0CDFD0834F5E723689847FAE737
:1053F0008C9E1000012270B5294B032086B01A70D4
:10540000FFF7E2FF00F0A0FF0420FFF7DDFF254CCF
:10541000254D2646AE4204F1300410D300F02CFC9A
:10542000204C224EAC4226D300F03AFCFBF73CF96C
:105430001F4A137B23F00103137306B070BD54F8A9
:105440000C3C059354F8103C049354F8143C03931B
:1054500054F8183C029354F81C3C019354F8203C37
:10546000009354E90A2354E90C0100F0D5F954F8EB
:10547000303C5E65CDE7D4E90A23B3F1FF3F08BFB6
:10548000B2F1FF3F05D052EA0301206803D103F0D7
:10549000BDFD3034C6E73146183000F0ABFDF8E70B
:1054A000388F102878981000789810003B911000E1
:1054B000000C102808B50348034A0021121A03F013
:1054C00077FD08BDC00210283C8F10280023012260
:1054D00070B586B0CDE904230F220193CDE90232E5
:1054E00014230446124D134E03FB0055124906EBDC
:1054F000C016124B01EB00214FF48072304600952C
:1055000000F08AF9737B2C7423F0040373730C4B43
:10551000013403EBC4236B600A4BEE60D3E8EF1F4A
:105520000131C3E8E21F002AF8D106B070BD00BF08
:10553000040F1028800B1028409A1028B98F1000F3
:1055400040921028000F1028BFB50020FFF73CFF45
:105550002A4B83F308880024E023294D294E85F83F
:105560002230EC772C766C76AC766B6A264F43F45F
:10557000E0236B62FDF7D4FCFDF744FE4FF0FF33F0
:10558000AB62EB62FDF7ECFFFDF760FEFCF7BEFCE3
:1055900040F201131D4D2846AB81C5E9184400F0C7
:1055A000CDFEB56003F0D8FC0120FFF70DFF02200F
:1055B000174DFFF709FF00F093FB164B756105933C
:1055C000012315494FF40052CDE9034328463B46D9
:1055D000CDE90144009400F01FF906466A7B284695
:1055E00022F004026A7303F04DFD2046FFF76EFFC0
:1055F0003A4631462846FDF7E5FD00BF409A10289F
:1056000000ED00E0040F1028F5531000800C102866
:10561000000C1028E5B71000409B10282DE9F3413D
:10562000044617461E46EFF31188202383F31288A1
:10563000BFF36F8FC368334A7BB18068916888423B
:1056400019D057EA060318D188F31188BFF36F8F7A
:105650006FF00F0002B0BDE8F081916891F90E1073
:105660000133E36093682161A36088F31188BFF37D
:105670006F8F0020EEE72169F2E791F90E1090F9A3
:105680000E306FF07E029942A8BF19469142B8BF12
:1056900011468B422DDD03F09AFC05462246414619
:1056A000CDE90076184800F033FA0028E1D0EFF396
:1056B0001186202383F31288BFF36F8FA068D0B1C7
:1056C000236821699C420AD04BB193F90E3099426C
:1056D000A8BF19466FF07E039942B8BF194603F080
:1056E00076FC40B13146084800F082FA6FF00A00BB
:1056F000B0E70025D2E7002DF4D186F31188BFF37F
:105700006F8FF3E7040F1028398F102838B583689E
:10571000044663B3194A926893422BD1C368012BA4
:1057200003D9013BC360002038BDEFF3118520236E
:1057300083F31288BFF36F8F0169806803F047FC21
:10574000204603F0FEFCA06058B190F90E202261C3
:105750000022826703F096FC2946094800F048FAC7
:10576000E1E7E06085F31188BFF36F8FDBE76FF04F
:105770001500D9E74FF0FF30D6E700BF040F10281F
:10578000398F102838B50446EFF31185202383F3B1
:105790001288BFF36F8F03F0D4FC48B100228267F8
:1057A00003F070FC2946BDE83840074800F020BAF5
:1057B000D4E902329A4218BF0133A36085F31188FD
:1057C000BFF36F8F38BD00BF398F102813B5EFF3CB
:1057D0001181202484F31288BFF36F8F846844B151
:1057E000013C846081F31188BFF36F8F002002B009
:1057F00010BD52EA030406D181F31188BFF36F8F05
:105800006FF00F00F3E7CDE900230246014800F0F6
:105810007FF9ECE7398F10282DE9F043984685B0E1
:1058200000F15803C0E91633109B002603730423CC
:10583000073222F0070543730F9B01EB05090F4662
:1058400083734946C0E906668660C6730446FDF761
:10585000C9F80E9B073020F00700A066C4E9187550
:1058600002930D9BA9EB000901930C9B4A46009300
:10587000394643462046FDF787FC054B66659B6825
:1058800003B1DB6E4846E36605B0BDE8F08300BFB8
:10589000040F1028F0B5002587B00595109DDDE9AF
:1058A000127604950F9D044603950E9D02950D9D5D
:1058B00001950C9D0095FFF7AFFFB6F1FF3F08BFC4
:1058C000B7F1FF3F05D056EA070305D1204600F0A7
:1058D000A1F9204607B0F0BD3A463346024904F12B
:1058E000180000F087FBF4E73B91100038B50D4D30
:1058F0002B4653F8184F9C4200D004B9EC68AB68B3
:1059000038B95A7BD20604D1A26912B9DA897F2A42
:1059100005D89C4202D0204600F0B4FA23466B61C1
:1059200038BD00BF040F102808B590F90D200146BE
:10593000002A437B04DA03F07F03437303F068FB20
:10594000044B9868431A58425841BDE80840FFF795
:10595000CDBF00BF040F102870B490F90D30427B0A
:10596000002B29DBD30627D183692BBB134962F0B7
:105970007F0242730A4652F8184F944218BF2346DA
:10598000CC6923B9C0E900242060C8610CE090F91B
:105990000E5093F90E60B5420AD0AE4208DD5A6847
:1059A000C0E9003210605860002070BCFFF79EBF55
:1059B0009C42E7D01B68E4E770BC7047040F1028D6
:1059C000002A2DE9F0410E460CBF10210821427B30
:1059D000044611420FD141EA0203D20918D14373A0
:1059E00008291BD00120FFF781FFBFF35F8F637B86
:1059F00023F060036373274B9B68A34243D1EFF30B
:105A00000583002B3FD13046BDE8F041FDF716BBC2
:105A100003F07F03437303F0FBFAE1E7A36813B1DC
:105A2000204603F0FDFA04F1180003F0C7FB4FF025
:105A3000000804F15807A56DBD4200D0B5B9154F57
:105A4000BB689C42CED1EFF30583002BCAD0012066
:105A5000FFF74CFF40F201130F4DAB8100232846A6
:105A6000C5E9183300F06AFCBD60BEE7284603F0C4
:105A7000D7FA05F1180003F0A1FB2846C5F8788095
:105A8000FFF76AFFD7E786F31188BFF36F8FBDE892
:105A9000F08100BF040F1028800C102870B590F919
:105AA0000D200146002A437B04DA03F07F03437391
:105AB00003F0AEFA154A4B7B104663F07F034B733D
:105AC00050F8183FD469834208BF002323B9C1E9C5
:105AD00000042160D1610CE091F90E5093F90E6041
:105AE000B5420ED0AE420CDD5868C1E9003001600D
:105AF00059609068BDE87040431A58425841FFF71A
:105B0000F5BE9C42E3D01B68E0E700BF040F1028FD
:105B1000F8B5124B0C46DDE9067611469868104A36
:105B20001060EFF31182202282F31288BFF36F8F8F
:105B30009D68284603F07EFAB6F1FF3F08BFB7F133
:105B4000FF3F06D03A463346064905F1180000F0FB
:105B500051FA2046BDE8F840FDF770BA040F10284E
:105B6000240F10283B911000F8B50446EFF311867E
:105B7000202383F31288BFF36F8F437B49B2DA0689
:105B800019D18569BDB903F07F03437303F040FA6F
:105B9000437B164A63F07F0343731346817353F8C4
:105BA000180F984218BF0546D0695DB9C4E90030A6
:105BB0000460D46111E00020A17386F31188BFF363
:105BC0006F8FF8BD95F90E70B9420BD08F4209DD89
:105BD0006B68C4E900531C606C600120FFF786FE0F
:105BE0000120EAE7A842E1D02D68DEE7040F102883
:105BF00049B9EFF3058030B9054B5A699B689A4261
:105C000001D0FDF71BBA81F31188BFF36F8F704786
:105C1000040F102810B5EFF31184202282F31288AC
:105C2000BFF36F8F427B510704D484F31188BFF315
:105C30006F8F10BD22F004024273FFF78DFE2146E4
:105C4000BDE810400148FFF7D3BF00BF398F1028CF
:105C5000034648B9EFF3058232B9064A51699268A2
:105C6000914201D0FDF7EAB983F31188BFF36F8F3A
:105C7000704700BF040F1028EFF31181202383F336
:105C80001288BFF36F8F054B9A68D37B013BD373A8
:105C900081F31188BFF36F8F704700BF040F102886
:105CA00038B5EFF31185202484F31288BFF36F8F8A
:105CB0000A4B00209A68D37B0133D373FFF716FE9B
:105CC00085F31188BFF36F8FEFF3118084F312888F
:105CD000BFF36F8FBDE83840FFF7BABF040F10283D
:105CE000024B03F11802C3E906227047040F102883
:105CF000F8B5EFF31185202383F31288BFF36F8F7C
:105D000019498868437B03F07F03437303F080F9EC
:105D100008468B685A7B62F07F025A7350F8182F3E
:105D2000CC69824208BF002222B9C3E90004236083
:105D3000CB610CE093F90E6092F90E70BE420ED06A
:105D4000B7420CDD5168C3E900210B6053600120AC
:105D5000FFF7CCFD2846BDE8F840FDF76FB9A24239
:105D6000E3D01268E0E700BF040F102850EA0103F7
:105D70002DE9F04105460E4603D1FFF7B9FF00209B
:105D80002BE0831C71F1FF3329DB03F02CFA2C1874
:105D9000EFF31188202383F31288BFF36F8F124F24
:105DA000124BB8681860FFF7BFFDB86810492A4663
:105DB0003346183000F01EF9BA684046537B43F072
:105DC00010035373FDF73AF903F00DFA201A63EB51
:105DD0000303012873F10003D1DBBDE8F0816FF00C
:105DE0000104241AD4E700BF040F1028240F102840
:105DF0003B911000B1F1FF3F08BFB0F1FF3F08B584
:105E000003D0BDE80840FFF7B1BF034B986803F02B
:105E100048F94FF0FF3008BD040F1028014B986877
:105E2000704700BF040F10280122044BC01A044B16
:105E3000C0105843034B1A54704700BF000D102880
:105E4000ABAAAAAA398F1028C3897F2B12D80A4B74
:105E50001B6863B1094B90F90E201B689A4209DB5D
:105E6000437BDB0606D1064BC31A18BF012303F0A0
:105E7000010070470023FAE72C0F1028280F102884
:105E8000800B102870B50E4B0E4C1E7C182303FBA4
:105E900006440546204603F091F900220A4B2846A5
