:020000040010EA
:1000000000000000000000000000000000000000F0
:1000100000000000000000000000000000000000E0
:1000200000000000000000000000000000000000D0
:1000300000000000000000000000000000000000C0
:1004000058101028090A100019071000F5091000EB
:10041000F5091000F5091000F5091000F5091000A4
:10042000000000000000000000000000B90B1000F8
:10043000F509100000000000810B100041121000AF
:10044000ED0C1000ED0C1000ED0C1000ED0C100088
:10045000ED0C1000ED0C1000ED0C1000ED0C100078
:10046000ED0C1000ED0C1000ED0C1000ED0C100068
:10047000ED0C1000ED0C1000ED0C1000ED0C100058
:10048000ED0C1000ED0C1000ED0C1000ED0C100048
:10049000ED0C1000ED0C1000ED0C1000ED0C100038
:1004A000ED0C1000ED0C1000ED0C1000ED0C100028
:1004B000ED0C1000ED0C1000ED0C1000ED0C100018
:1004C000ED0C1000ED0C1000ED0C1000ED0C100008
:1004D000ED0C1000ED0C1000ED0C1000ED0C1000F8
:1004E000ED0C1000ED0C1000ED0C1000ED0C1000E8
:1004F000ED0C1000ED0C1000ED0C1000ED0C1000D8
:10050000ED0C1000ED0C1000ED0C1000ED0C1000C7
:10051000ED0C1000ED0C1000ED0C1000ED0C1000B7
:10052000ED0C1000ED0C1000ED0C1000ED0C1000A7
:10053000ED0C1000ED0C1000ED0C1000ED0C100097
:10054000ED0C1000ED0C1000ED0C1000ED0C100087
:10055000ED0C1000ED0C1000ED0C1000ED0C100077
:10056000ED0C1000ED0C1000ED0C1000ED0C100067
:10057000ED0C1000ED0C1000ED0C1000ED0C100057
:10058000ED0C1000ED0C1000ED0C1000ED0C100047
:10059000ED0C1000ED0C1000ED0C1000ED0C100037
:1005A000ED0C1000ED0C1000ED0C1000ED0C100027
:1005B000ED0C1000ED0C1000ED0C1000ED0C100017
:1005C0002DE9F04300251B4FDFF86C80DFF86C90BD
:1005D00089B020226946284600F036F810F1870FCE
:1005E00004460ED1052D05D00146154802F085F8C8
:1005F0000135EEE7134802F080F8002009B0BDE8AD
:10060000F08338B101460E4802F077F80135062D27
:10061000DFD1F2E7384602F070F86E46404616F831
:10062000011B013402F069F8202CF7D1484602F092
:1006300064F8EBE72F361000383610002F37100023
:10064000EC351000F835100030B589B003AB0493D9
:1006500004230390CDE905310C480121079200F0F5
:10066000EFFE051E0EDD012306AA00920021019374
:1006700004AA00F0CBFE0446284600F0EFFE204618
:1006800009B030BD6FF08304F9E700BF01F0FFFF50
:10069000014B1B68184700BF0000102830B585B01B
:1006A00004460D4610220021684602F069FC022330
:1006B0008DF80230044B2A4621466846019301F02A
:1006C000DFFC05B030BD00BF91061000014B186083
:1006D000704700BF0000102880B505460E4617463B
:1006E000984601F0F9FA034602F052FC0446DFF89E
:1006F0001890424649F8003039463046A84754F829
:10070000090000F0E7F900BF08000000014B03609A
:10071000002070474034100008B5034B1B68984711
:10072000BDE8084000F026B80400102830BFFFF7ED
:10073000FDBF00BF2DE9F04105460B4EDFF82C80D0
:10074000324606EB0807CC1B2046094902F00BFC99
:10075000A01942460021083C02F012FC2C6707F168
:100760000800BDE8F08100BF0000000004000000A8
:100770001C341000074A936893F90E10002907DB18
:10078000526993421FBF044A536843F08053536039
:10079000704700BF2403102800ED00E0154B9A6A53
:1007A00012F0007F9A6A14BF1E201D2012F0807F75
:1007B0009A6A18BF1F2012F4801F9A6A18BF20205F
:1007C00012F4002F9A6A18BF212012F4802F9A6A1F
:1007D00018BF222012F4003F9A6A18BF232012F497
:1007E000803F9A6A18BF24206FEA02426FEA1242E1
:1007F0009A62704700ED00E010B5164B9A6A9C6A49
:1008000012F4805F14BF1722162214F4006F9C6A42
:1008100018BF1822A40509D59A6B9A6A120404D548
:1008200018B19A6A22F400429A621922094B986A16
:1008300010F4806F986A18BF1A2210F4807F986AAB
:1008400040F47F4098624FF000030CBF10461B201D
:100850000B7010BD00ED00E010B5154B0246986A14
:100860009C6A10F0100F14BF1120102014F0080F14
:100870009C6A18BF1220A40709D5586B986A000615
:1008800004D51AB19A6A22F080029A621320084BAA
:100890009A6A12F0010F9A6A18BF1420D20658BF44
:1008A0009A6A9A6A42F0FF029A6200230B7010BDA6
:1008B00000ED00E0F0B54A4B04465B6800258BB0C4
:1008C000C3F3080385F31188BFF36F8F02F07F40F5
:1008D000B0F17F4F16D1D60714D4550603D41007B4
:1008E00004D4012504E012F0040200D00C460025D7
:1008F0000022033B8DF80720032B05D8DFE803F027
:100900002462665F2C46F3E700239DF80720CAB9EE
:1009100002AE04F12007324620686168083403C241
:10092000BC421646F7D1099A002D53D0C2F30801F4
:1009300021B96FEA52226FEA42220992184602A9AF
:1009400001F0E9FE0BB0F0BD254BDA6A9107DBD46C
:10095000DA6A002AD8DBDA6A5200D5D55A69A16969
:1009600042F480725A61BFF34F8FBFF36F8F5A69A1
:1009700031F8021C22F480725A61BFF34F8FBFF32B
:100980006F8F4DF60272914201D12368BDE79A6ADA
:10099000D2B232B101200DF10701FFF75DFF03462E
:1009A000B3E79A6A12F47F4F05D001200DF10701D9
:1009B000FFF722FFF3E79B6AB3F5803FA4D3FFF76D
:1009C000EDFEECE700200DF10701E6E700200DF158
:1009D0000701EDE722F4FF7222F00102ADE700BF4C
:1009E00000ED00E0024A536943F010035361704781
:1009F00000ED00E0EFF30880EFF3098101B57246E6
:100A0000FFF758FF01BD00BF002080F31488BFF33B
:100A10006F8F002080F30A8880F30B8800200E4936
:100A20000860BFF34F8F0D4880F3088800F02CF862
:100A3000202080F311880A484FF40061401880F3A9
:100A40000988EFF314800221084380F31488BFF370
:100A50006F8F00F0E5F8000094ED00E058101028CA
:100A600058031028002318460649D1F89020C2F3F5
:100A70000722934200DB7047C1F89830C1F8A0000C
:100A80000133F6E700ED00E010B572B6002484F300
:100A90001388FFF7E7FF23464FF0FF300C4A03F1BE
:100AA00020010133102B42F82100F8D100234FF030
:100AB000FF30074A03F160010133102B42F8210097
:100AC000F8D162B6BFF34F8FBFF36F8F10BD00BF79
:100AD00000E100E0084B9B6883420BD1EFF30583F4
:100AE00043B1064B5A6842F080525A605A6A22F467
:100AF00000425A6202F09EB92403102800ED00E083
:100B00006FF00A01084A93689967084958674B686B
:100B100043F080534B60002383F31188BFF36F8F42
:100B20009368986F704700BF2403102800ED00E021
:100B3000104A936883F87D00EFF31183202383F339
:100B40001288BFF36F8F4FF00061536920F0FF00F0
:100B50009360094A5160196F084A1160002193F8A7
:100B60007D2010435A6F596782F31188BFF36F8F4E
:100B7000704700BF2403102800ED00E0B8021028E1
:100B80000C498A6882F87DE04FF030001044EFF3A2
:100B9000098C80E8F01F74467046FFF7C9FFA6462F
:100BA00004498A68864602F1300090E8F01F8CF311
:100BB00009887047240310281EF0040F0CBFEFF3C0
:100BC0000880EFF30980816911F8021C0229FFD027
:100BD00001B501F0A6FD01BD40B2002807DB0123ED
:100BE0004109034A00F01F00834042F8213070475A
:100BF00000E100E040B2002801F10101ACBF00F1CA
:100C00006040064B4FEA4111C9B2ABBF00F56140ED
:100C100000F00F0080F800131954704714ED00E045
:100C200008B5084B084A23F07F039360BFF34F8F4A
:100C3000BFF36F8F00F0AEFC01F0DAF800F04AF875
:100C400000F0F2FC0004100000ED00E042F8203C4F
:100C5000009B0C4942F81C3C019B21F0010142F829
:100C6000183C029B42F8081C42F8143C4FF0807379
:100C700042F8043C002343674FF43C43203A0265AA
:100C8000C3677047D90610000B4B0E469860016F82
:100C90000A4B154619602C4686F309884FF0000070
:100CA000074B984720464FF000014FF000024FF0ED
:100CB0000003044C204700BF24031028B80210286A
:100CC00037271000D90610001022014B1A61704717
:100CD00000ED00E0002320210348C2180133602BFF
:100CE00082F80013F9D1704700E100E008B5EFF396
:100CF0000583064A103B02EBC30152F833004968F2
:100D00008847BDE80840FFF735BD00BF1C31100023
:100D10001FB5094C094A23460121094800F0FAF899
:100D200000230393074B0121E41A01A801930294C5
:100D300000F0FAF804B010BD0000182800001028D8
:100D4000403410000001102810B50C7A0B6804F034
:100D50001F0223F01F031A43CB68640923F01F030B
:100D6000054943EA440343F00103C1F89800C1F880
:100D70009C20C1F8A03010BD00ED00E010B5074B7D
:100D8000D3F89030C3F30723013B984202D8FFF712
:100D9000DBFF10BD6FF01500FBE700BF00ED00E0CA
:100DA0002DE9F04F0F46144606464FF000084D4D12
:100DB00085B0B84580F29280D6F80490B9F1000F62
:100DC00036D0B9F11F0F40F2878019F01F0F40F0A5
:100DD0008380D6F800A01AF01F0F7DD1504601F095
:100DE000BEFC834609EB0A00013801F0B8FC8345DC
:100DF00072D11BF1160F6FD05C456DDDC5F898B050
:100E0000D5F89C10C5F898B0D5F8A03021F01F0196
:100E100043F01F0AD6E900321A44994202F1FF3921
:100E20001ED1CA4508D131465FFA8BF001F0A0FC13
:100E300008F101080C36BCE73146C5F898B0D5F882
:100E40009C3022F01F0203F01F031343C5F89C30AF
:100E5000E0B201F08DFC10F1160F3DD0441CE7E725
:100E6000C5F898B0D5F8A020013B23F01F0302F08D
:100E70001F021343CA453146E0B2C5F8A030E8D09E
:100E800001F076FC10F1160F26D0C5F898B0D5F811
:100E90009C209DF808300AF1FF3A62F304038DF8B4
:100EA0000830D5F8A0309DF808205B0863F347129E
:100EB0008DF80820D6E900321344009323F01F0375
:100EC0005344A3EB0903013023F01F036946C0B26A
:100ED0000393FFF753FFBEE76FF01504204605B0FC
:100EE000BDE8F08F00ED00E00522044BC3F894202C
:100EF000BFF34F8FBFF36F8F704700BF00ED00E06F
:100F0000BFF35F8F0022024BC3F89420704700BFED
:100F100000ED00E010B5034C2278FFF741FF207090
:100F200010BD00BF540310282DE9F74F294D8A4604
:100F300006464FF00008AB46274FD0451BDAD6F8DF
:100F40000490B9F1000F3FD031680846019101F0DB
:100F500006FC0199044609EB0100013801F0FFFB92
:100F600084424FF014021D4B08D002FB08F36FF0CF
:100F700015024BF8032003B0BDE8F08F14F1160FF3
:100F80002C60F8D01978A142F5DD02FB08B0C7F853
:100F90009840C7F89840D7F89C4000F10801007BC2
:100FA00064F304000871D7F8A0000C79400860F3DE
:100FB00047140C71D7F89C1021F01F016960D7F815
:100FC000A01021F01F01296108F1010814350C3629
:100FD000B3E700BFBC02102800ED00E05403102866
:100FE000F0B54149414CD1F890302568C3F307234F
:100FF0009D4287B075D80020FFF782FF3C4BC1F8B7
:10100000C030854216D13B4C01A82570FFF77EFB0E
:1010100000250646384FAE4213D1002023783249CE
:10102000D1F89020C2F30722934254DBFFF75CFF14
:1010300000204EE0616801EB0011FFF785FE0130F2
:10104000DFE70199280101EB0513DA683A40B2F5B0
:10105000001F22D0B2F5800F2CD0B2F5801F36D100
:101060005A689B680958013B22F01F000344012085
:10107000844623F01F0340EA4C10CDE902218DF88D
:10108000100002A920780593FFF778FE00281EDBE8
:101090002378013501332370BDE75A689B680958EE
:1010A000013B22F01F0003444FF0020C012023F00B
:1010B0001F03E0E75A689B680958013B22F01F00B4
:1010C00003444FF0000C062023F01F03D3E76FF01A
:1010D000150007B0F0BDC1F89830C1F8A000013389
:1010E0009EE74FF0FF30F4E700ED00E04C341000D5
:1010F000AAFF4400540310280000F0FF08B5024B7B
:101100001B689847002008BDD0021028034B044AF2
:101110001860937843F0020393707047D002102850
:101120000800102808B50649064821F00701C1F15A
:10113000205202F5C01201F086FA002008BD00BF5F
:101140005F101028D40210284FF63102064B002001
:101150009A614CF26F4203F580539A614FF49E52AC
:1011600003F580539A6170470000104008B50748A6
:1011700001F090FD38B10648FFF7C8FF0448FFF7BB
:10118000A5FA002008BD6FF01200FBE7083110003F
:10119000951110000A2838B50446074D04D1AB68F4
:1011A0000D2128465B689847AB6803485B68E1B24D
:1011B0009847204638BD00BF083110004FF0E023AB
:1011C00010B50F499C691A6908689B690D4902F4BA
:1011D000803234B993B903464AB90A681044C01A38
:1011E00010BD002B08BF03460AB9A342F5D90A680F
:1011F00002440A604FF0E0221269EEE70446F3E78A
:101200001C0310281003102820220020084B83F80C
:101210002320084B084A1A60084B013A18604FF027
:10122000E0235A6198611A6942F007021A61704717
:1012300000ED00E01C03102890D0030010031028DC
:1012400008B5FFF7BBFF0B4B0B4A18681168084441
:10125000106000221A60094A09491368C01AB0FBDD
:10126000F1F001FB0033136000F09CFEBDE8084084
:10127000FFF780BA10031028180310281403102851
:1012800090D003002DE9F041314E91B1421C0AD1BA
:101290004FF0E022136923F0010313614FF07F4305
:1012A0003360BDE8F0813468012806DC4FF00008A7
:1012B00008E0431C3468F7D142204328A8BF4320EC
:1012C00000F1FF38EFF31185202383F31288BFF379
:1012D0006F8FFFF773FF4FF0E0230022DFF874C039
:1012E0009F69DCF8003018441B4B1A601B4B1A68CE
:1012F000831A29D4DFF868E00EFB083303F5743352
:101300008F33B3FBFEF1131A43F609520EFB013380
:10131000934238BF1346134A934228BF13464FF0F7
:10132000E0223360013B9169536100238F42A7EBB8
:10133000010738BF3F1938449361CCF8000085F3AA
:101340001188BFF36F8FACE743F60953E7E700BF9F
:101350001C03102818031028100310281403102849
:1013600090D0030020C5FB0038B5EFF31185202392
:1013700083F31288BFF36F8F074B1C68074B1B6802
:10138000E41AFFF71BFF85F31188BFF36F8F044B3F
:101390002044B0FBF3F038BD1803102814031028C4
:1013A00090D003002DE9F0411F46164B044693F8F8
:1013B00000800D461646A2B0B8F1000F15D1684660
:1013C00001F0B3F93A4631462846289BA047044627
:1013D000684601F0ABF9B8F1000F02D00A4800F0FE
:1013E00001FA204622B0BDE8F0814FF0FF324FF005
:1013F000FF33054800F07EF90028E0D06FF0830449
:10140000EFE700BF55031028EC00102810B4B1F529
:10141000004F029C0ED2042B0CD8042C0AD82404B2
:1014200044EA0364134644EA0102014610BC03483F
:10143000FFF7B8BF6FF0800010BC7047610608105E
:10144000002307B50A46009301460348FFF7AAFFA9
:1014500003B05DF804FB00BF59060810002307B570
:1014600001461A4600930348FFF79CFF03B05DF85E
:1014700004FB00BF5106081038B5EFF31185202397
:1014800083F31288BFF36F8F064B9C6801F015FC45
:1014900085F31188BFF36F8F2046BDE83840FFF712
:1014A00019BB00BF2403102838B5094B53F820405E
:1014B000013053F82050A54200D838BD636823B1ED
:1014C000204601F0FDFB0834F5E723689847FAE76A
:1014D000D4351000012270B5294B032086B01A7054
:1014E000FFF7E2FF00F0C6FD0420FFF7DDFF254C0B
:1014F000254D2646AE4204F1300410D300F0B0FB77
:10150000204C224EAC4226D300F0BEFBFFF758F829
:101510001F4A137B23F00103137306B070BD54F808
:101520000C3C059354F8103C049354F8143C03937A
:1015300054F8183C029354F81C3C019354F8203C96
:10154000009354E90A2354E90C0100F087F954F898
:10155000303C5E65CDE7D4E90A23B3F1FF3F08BF15
:10156000B2F1FF3F05D052EA0301206803D101F038
:10157000D6FB3034C6E73146183000F099FCF8E766
:10158000550310281C3410001C341000F72D1000D7
:101590008001102808B50348034A0021121A01F0FF
:1015A000A7FB08BD000110285803102800230122C2
:1015B00070B586B0CDE904230F220193CDE9023244
:1015C00014230446124D134E03FB0055124906EB3B
:1015D000C016124B01EB00214FF48072304600958B
:1015E00000F03CF9737B2C7423F0040373730C4BF1
:1015F000013403EBC4236B600A4BEE60D3E8EF1FAA
:101600000131C3E8E21F002AF8D106B070BD00BF67
:101610002403102800011028580B1028F92C100062
:101620005803102820031028BFB50020FFF73CFF07
:10163000284B83F308880024E023274D274E85F8A4
:101640002230EC772C766C76AC766B6A244F43F4C0
:10165000E0236B62FFF7C6F9FFF736FB4FF0FF336D
:10166000AB62EB62FFF7BCFCFFF752FB40F20112EA
:101670001C4B1D4D9A81B360C3E91844DC6601F030
:1016800008FB0120FFF710FF0220FFF70DFF00F01D
:101690001BFB164B75610593012315494FF48062BE
:1016A000CDE9034328463B46CDE90144009400F0D0
:1016B000D5F806466A7B284622F004026A7301F0D8
:1016C0006AFB2046FFF772FF3A4631462846FFF78D
:1016D000DBFA00BF580B102800ED00E024031028AF
:1016E000D51410000002102880011028F1361000D7
:1016F000580C10282DE9F341044617461E46EFF317
:101700001188202383F31288BFF36F8FC368334A95
:101710007BB180689168884219D057EA060318D1D6
:1017200088F31188BFF36F8F6FF00F0002B0BDE830
:10173000F081916891F90E100133E36093682161A3
:10174000A36088F31188BFF36F8F0020EEE7216953
:10175000F2E791F90E1090F90E306FF07E02994287
:10176000A8BF19469142B8BF11468B422DDD01F04A
:10177000CEFA054622464146CDE90076184800F0EB
:10178000BBF90028E1D0EFF31186202383F3128800
:10179000BFF36F8FA068D0B1236821699C420AD043
:1017A0004BB193F90E309942A8BF19466FF07E03F2
:1017B0009942B8BF194601F0AAFA40B1314608482B
:1017C00000F00AFA6FF00A00B0E70025D2E7002D1A
:1017D000F4D186F31188BFF36F8FF3E72403102849
:1017E0005603102838B58368044663B3194A9268D3
:1017F00093422BD1C368012B03D9013BC360002066
:1018000038BDEFF31185202383F31288BFF36F8F68
:101810000169806801F07BFA204601F0F0FAA060CF
:1018200058B190F90E2022610022826701F0B3FACC
:101830002946094800F0D0F9E1E7E06085F3118816
:10184000BFF36F8FDBE76FF01500D9E74FF0FF3084
:10185000D6E700BF24031028560310282DE9F043D3
:10186000984685B000F15803C0E91633109B002656
:1018700003730423073222F0070543730F9B01EB28
:1018800005090F4683734946C0E906668660C6733C
:101890000446FEF74FFF0E9B073020F00700A066BE
:1018A000C4E9187502930D9BA9EB000901930C9BE9
:1018B0004A460093394643462046FFF7C7F9054B91
:1018C00066659B6803B1DB6E4846E36605B0BDE81C
:1018D000F08300BF2403102838B50D4D2B4653F874
:1018E000184F9C4200D004B9EC68AB6838B95A7BF9
:1018F000D20604D1A26912B9DA897F2A05D89C429E
:1019000002D0204600F01CFA23466B6138BD00BFB0
:101910002403102808B590F90D200146002A437BC6
:1019200004DA03F07F03437301F0FBF9044B98687A
:10193000431A58425841BDE80840FFF7CDBF00BFE9
:101940002403102870B490F90D30427B002B29DB62
:10195000D30627D183692BBB134962F07F02427300
:101960000A4652F8184F944218BF2346CC6923B94F
:10197000C0E900242060C8610CE090F90E5093F992
:101980000E60B5420AD0AE4208DD5A68C0E90032A6
:1019900010605860002070BCFFF79EBF9C42E7D0EB
:1019A0001B68E4E770BC704724031028002A2DE967
:1019B000F0410E460CBF10210821427B0446114223
:1019C0000FD141EA0203D20918D1437308291BD071
:1019D0000120FFF781FFBFF35F8F637B23F060037C
:1019E0006373264B9B68A34241D1EFF30583002B21
:1019F0003DD13046BDE8F041FFF782B803F07F03E8
:101A0000437301F08EF9E1E7A36813B1204601F0BA
:101A100090F904F1180001F02FFA4FF0000804F1DA
:101A20005807A56DBD4200D0A5B9144DAB689C42C6
:101A3000CED1EFF30583002BCAD00120FFF74CFF76
:101A400040F201120E4B9A810022AB60C3E91822CA
:101A5000DA66C0E7284601F06CF905F1180001F0DC
:101A60000BFA2846C5F87880FFF76CFFD9E786F3B4
:101A70001188BFF36F8FBDE8F08100BF24031028E9
:101A80000002102870B590F90D200146002A437B12
:101A900004DA03F07F03437301F043F9154A4B7BEB
:101AA000104663F07F034B7350F8183FD4698342AC
:101AB00008BF002323B9C1E900042160D1610CE013
:101AC00091F90E5093F90E60B5420ED0AE420CDD86
:101AD0005868C1E90030016059609068BDE8704005
:101AE000431A58425841FFF7F7BE9C42E3D01B68A7
:101AF000E0E700BF24031028F8B5124B0C46DDE9DF
:101B0000067611469868104A1060EFF31182202281
:101B100082F31288BFF36F8F9D68284601F013F996
:101B2000B6F1FF3F08BFB7F1FF3F06D03A46334654
:101B3000064905F1180000F0BBF92046BDE8F84061
:101B4000FEF7DEBF2403102844031028F72D1000F1
:101B5000F8B50446EFF31186202383F31288BFF310
:101B60006F8F437B49B2DA0619D18569BDB903F09D
:101B70007F03437301F0D5F8437B164A63F07F037C
:101B800043731346817353F8180F984218BF0546E4
:101B9000D0695DB9C4E900300460D46111E000206F
:101BA000A17386F31188BFF36F8FF8BD95F90E709E
:101BB000B9420BD08F4209DD6B68C4E900531C6049
:101BC0006C600120FFF788FE0120EAE7A842E1D01F
:101BD0002D68DEE72403102849B9EFF3058030B9FA
:101BE000054B5A699B689A4201D0FEF789BF81F381
:101BF0001188BFF36F8F70472403102810B5EFF3DF
:101C00001184202282F31288BFF36F8F427B510729
:101C100004D484F31188BFF36F8F10BD22F0040247
:101C20004273FFF78FFE2146BDE810400148FFF7E1
:101C3000D3BF00BF56031028034648B9EFF305820F
:101C400032B9064A51699268914201D0FEF758BFF5
:101C500083F31188BFF36F8F704700BF24031028F0
:101C6000EFF31181202383F31288BFF36F8F054BAD
:101C70009A68D37B013BD37381F31188BFF36F8FD5
:101C8000704700BF2403102838B5EFF311852024D6
:101C900084F31288BFF36F8F0A4B00209A68D37BBE
:101CA0000133D373FFF718FE85F31188BFF36F8FED
:101CB000EFF3118084F31288BFF36F8FBDE83840D3
:101CC000FFF7BABF24031028024B03F11802C3E93F
:101CD0000622704724031028014B9868704700BF04
:101CE000240310280122044BC01A044BC01058438F
:101CF000034B1A54704700BF80021028ABAAAAAA4F
:101D000056031028C3897F2B12D80A4B1B6863B176
:101D1000094B90F90E201B689A4209DB437BDB06D6
:101D200006D1064BC31A18BF012303F00100704708
:101D30000023FAE74C03102848031028000110285C
:101D400070B50E4B0E4C1E7C182303FB0644054653
:101D5000204601F091F800220A4B28469A55FFF7D9
:101D6000D1FF48B1084B2046BDE870401A680749CA
:101D7000013AD31700F09CB870BD00BF24031028AF
:101D800080021028560310284C031028E51C100070
:101D900038B5EFF31185202383F31288BFF36F8FDB
:101DA000104B114A9C681068A04206D1FFF7C8FF8B
:101DB00085F31188BFF36F8F38BD00211B7C116044
:101DC0000A4AD35C002BF3D02046FFF79BFF002884
:101DD000EED0637BDB0602D12046FFF753FE2046A0
:101DE000E4E700BF240310284403102856031028FA
:101DF00008B50648064A0749121A00F07BFFBDE8FD
:101E00000840054A0549064800F074BF0000102844
:101E1000000110284037100000000000403710007B
:101E200000001028034B1B680BB9FFF79DBA002078
:101E3000704700BF5003102830B570B10B4B5B6882
:101E400098420AD0036843B1D3E90421D0E904459C
:101E5000121941EB0501C3E90421D0E900321360F6
:101E60005A600023C0E9003330BD00BFCC00102809
:101E700010B50E4B1C689C4204D1FFF7D3FF6FF0E6
:101E8000004010BDFFF7CEFF002CF8D0D4E904329B
:101E90001B1A62EBE072B3F1004F72F10001EEDA4F
:101EA000002AACBF18460020EBE700BFCC0010288A
:101EB000B3F1FF3F08BFB2F1FF3FF8B504461D463E
:101EC00016465ED08160EFF31187202383F31288DA
:101ED000BFF36F8F013275F1FF3324DA6FF0010326
:101EE0002D49D1E900209B1A4FF0FF3262EB000030
:101EF0009E1B60EB0500012E70F1000301DA012644
:101F00000020C4E90460254ED6F800C07568B445C9
:101F100008BF4FF0000CBCF1000F0DD1C4E9006503
:101F20002C6074601CE0FFF77DFF013645F1000571
:101F3000361845EBE070E4E7DCE90420D4E904312D
:101F4000934271EB000E1DDAD21ADCF8043060EB1C
:101F50000100CCE90420C4E900C31C60CCF80440B3
:101F60003368B34209D09C4207D10D4B1C6824B999
:101F7000FFF77EFF2146FFF785F987F31188BFF34E
:101F80006F8FF8BD9B1A61EB0001AC45C4E90431C9
:101F9000C4D0DCF800C0BEE798021028CC0010289E
:101FA000500310282DE9F84FEFF3118C202383F311
:101FB0001288BFF36F8FDFF8B0A0DFF8B090002475
:101FC000C9F80000DAF800000025504508BF0020DD
:101FD000274FE046D7E90021D9F8003078B3D0E99F
:101FE000046C4FEAE37EB3427EEB0C0B05DAF61A83
:101FF0006CEB0E04C0E9046421E0B21841EBE67119
:10200000C0E90445C7E90021FFF716FF88F31188EE
:10201000BFF36F8F83689847EFF31188202383F312
:102020001288BFF36F8FD9F80030DAF800009B1BDD
:102030005045C446C9F80030CBD1D7E9002100246F
:102040009A1841EBE373C7E90023C9F80040FFF792
:102050000FFF2146FFF716F988F31188BFF36F8F42
:10206000BDE8F84FFFF794BECC00102850031028AD
:1020700098021028014800F040BB00BFF63610005F
:102080002DE9F04F43688DB0154680460293837862
:102090009A0740F10D8100240E78002E00F00A818D
:1020A000252E0BD04B1C0393013441463046029B36
:1020B00098470028C0F2F6800399EDE74E788B1C14
:1020C000252E0393F0D00027B946BB46BBF11F0F66
:1020D00038D8A6F12003102B0AD8DFE803F02A092C
:1020E00009300909092109090928092D09091F00D1
:1020F000A6F13003092B33D92A2E37D11BF0400F1C
:1021000055F8043B40F08280002BA7BF4BF0200B1A
:102110009946C3F100094BF0280B01E04BF0010B8D
:10212000039B13F8016B0393002ECFD130E04BF0EB
:10213000020B4BF0040BF3E74BF0080BF0E74BF00E
:10214000100BEDE7BBF17F0F19D8A6F13003092B77
:10215000D2D81BF0400F03D00A2101FB0737DFE77D
:102160000A214BF0200B01FB0939D9E72E2E06D1AD
:102170001BF0400F40F09E804BF0400BD0E76C2EE0
:1021800031D02BD8682E36D06A2E3CD04C2E3AD087
:10219000002F46F02003B8BF2BF04002A3F16501E9
:1021A000BCBF00271FFA82FB022901D9612B2FD166
:1021B00007350727DFF8ACA225F0070508351BF027
:1021C000080F66D00AEB070B56465E4563D1A4EBB9
:1021D0000A0AA9EB070906EB0A026FE1742E9FD0E9
:1021E0007A2E9DD0D4E71BF0800F18BF4BF4007BF4
:1021F0004BF0800B94E71BF4807F18BF4BF4007BFF
:102200004BF4807B8CE74BF4207B89E71F4687E704
:10221000A6F16301122900F2F080DFE811F013004B
:102220004F00EE00EE00EE00EE004F00EE00EE007C
:10223000EE00EE00EE00FE00E900EE00EE001B00F6
:10224000EE00AF0055F8043B01270DF1180A8DF898
:102250001830B4E755F804AB834BBAF1000F08BF50
:102260009A461BF0400F504614BF39464FF0FF31DD
:1022700000F017FE0746A2E741462020029B984740
:1022800000280FDB013EB742F6D34C44B146A41BF5
:1022900098E74E46F7E7414616F8010B029B984730
:1022A000002892DA98F8023043F0040388F80230EC
:1022B0004FF0FF3420460DB0BDE8F08F1BF0800FCB
:1022C00034D01BF4007F2CD0073525F00705AA4633
:1022D00069685AF8080B2BF010050029ADB237DAFF
:1022E000404245F4806561EB41010DF1180B0A2372
:1022F0005A4600F0E2FDA0EB0B0301936B0662D59A
:10230000019B25F001019F4289B240F3A180002E7C
:1023100000F0998015F0100240F09C80BB460D46FD
:1023200023E0AA465AF8040BC117D4E7AA461BF4C7
:10233000807F5AF8041B01D10846F5E71BF4007FA3
:1023400019BF48B241F3C01108B241F3C031C2E72E
:1023500050EA0103C9D11BF0400FC6D0002FC4D1F1
:102360002BF01102BB46019795B240F2064115EAE7
:1023700001021CBF0BF1010B00222CE02BF010021C
:102380000A231FFA82FB1BF0800C49D01BF400715A
:1023900015BF0735AA4625F007055AF8040B1EBFDE
:1023A000AA4669685AF8080B50EA010545D12BF096
:1023B00016051BF0400FADB242D0002F40D12BF0DC
:1023C0001702019795B215F0100248D0019B002E1C
:1023D00042D103F1010B29075AD4EB0706D5D945A1
:1023E0006FDDA9EB0B030199CB465F185B4649E013
:1023F0004BF0100B10237826C5E7782B04D1C6F1DB
:10240000780343F01003BEE741462520029B98471E
:102410000028FFF647AF023447E608230026B2E75C
:10242000AA461BF480715AF8040BBDD01BF400714E
:102430001ABFC0B2614680B2B6E72BF0060295B271
:102440000DF1180B54E725F01105BB46ADB28CE732
:102450000D46B8E73B460D4603F1020BBBE7DDF83E
:1024600004B082E73837100031371000CDE904326C
:1024700041462020029B98470028FFF613AF049B9B
:10248000059A01339945F1DCA4EB0B019B46CC186E
:102490000AB341463020029B98470028FFF602AF5E
:1024A0008EB901342744391B019B994224DC1D4617
:1024B00055BB019AA9EB0B09554622441446914499
:1024C00033E0019F92E7023441463046029B984731
:1024D0000028E7DAE6E640F206410D42E2D015F0C8
:1024E000020F04F10104414614BF2B20202015F4F3
:1024F000806F18BF2D20E9E741463020029B013450
:1025000098470028CFDACDE606AB013D4146585D3D
:10251000029B98470028CBDAC4E641462020029B64
:10252000013498470028FFF6BDAEA9EB0403002B49
:10253000F3DCC1E57047836800EBC101B3F5004FE0
:102540002CBF51F8220031F81200704700EBC10196
:102550008068B0F5004F2CBF41F8223021F81230CE
:102560007047012208B5FFF7E6FFD04008BD836839
:1025700000EBC101B3F5004F08D34B681AB143F02B
:1025800001034B60704723F00103FAE74B881AB14F
:1025900043F001034B80704723F00103FAE7530037
:1025A0000122FFF7D3BFB0F5004F34BF0423082347
:1025B000481C0833A0EBD300B0FA80F0C0F11F0034
:1025C00070472DE9F0410D4686680446FFF7C9FFC4
:1025D000B6F5004F014601D3012832D03046FFF74F
:1025E000E2FF04EB80010E6996B90122E3688240A4
:1025F0001343E36002220D612B4629462046FFF774
:10260000A5FF032229462046BDE8F041FFF79EBF03
:10261000022231462046FFF78EFF07460346294631
:102620002046FFF793FF0322334629462046FFF753
:102630008DFF39462B462046FFF788FF02223146A0
:10264000E1E7BDE8F081B2F5802F2CBF0823042319
:102650002DE9F0410026D21A8C18CD1D25F0070572
:1026600024F00704641BE408056021462046AC60A2
:10267000EE60FFF798FF421D9200013002F107075C
:102680004FEAD7073146A2F1100205F11000B8BF9A
:10269000324600F075FC3A4631462846FFF77FFF88
:1026A0003346324631462846FFF750FFA4EB070871
:1026B000284631460122FFF75AFF42463946FFF7C6
:1026C0006EFF3B46324639462846FFF73FFF21461C
:1026D0002846FFF764FF4346324621462846FFF767
:1026E00035FF214628460122FFF741FF3946BDE864
:1026F000F041FFF766BF002070470FB407B504A98B
:1027000051F8040B0191FDF7C9FF03B05DF804EB2C
:1027100004B070477047012801D1EFF30583FEF73D
:10272000ABBE01460068FFF7F6BF70477047002157
:102730000120FFF7F0BF61B662B680F31188BFF3E6
:102740006F8F704772B6002383F31188BFF36F8FCA
:10275000BFF34F8F30BF62B6BFF36F8F704740E853
:1027600000F313F4803FD8B208BF6FF01500704734
:1027700030B50C684B6885B00A894D890094013BDF
:1027800024F01F04234402F01F0242EA451223F002
:102790001F0369468DF808200393FEF7EFFA05B092
:1027A00030BD08B5FEF7AAFC002008BD4368002034
:1027B0005B681B680B60704743685B685868424001
:1027C0000A4042405A6000207047436800205A681F
:1027D00053680B4353607047436800205A6853683E
:1027E00023EA010353607047436800205A68536826
:1027F0004B4053607047012310B512F4403F4468CA
:1028000003FA01F116D012F0320F13D193030ED553
:10281000130307D5FFF7D9FF6368196100206368C8
:10282000D96110BD5303F7D5FFF7D6FFF4E763680E
:102830005961F3E76FF08500F3E730B5B3F1C06F8E
:1028400044681CD0B2F5800F19D00120B2F5001FEA
:10285000656800FA01F102D16962002030BDB2F171
:10286000A07F0CBFA962E9626268B3F1806F0CBF00
:10287000116351636368996363681962EDE76FF0F0
:102880008500EBE710B503695868F8B1884219D1A3
:102890009C680868A142586000D1986000200860D8
:1028A0002AB15A680A609A68596002B99960002092
:1028B00010E0814206D10868206098688142EDD11D
:1028C0009C60EBE7044600680028F2D1002AE8D1BA
:1028D0006FF0150010BD08B543689B68984700204D
:1028E00008BD08B5442000220321FEF783F9BDE8A6
:1028F00008404420FEF770B908B5452000220321A6
:10290000FEF778F9BDE808404520FEF765B908B53F
:10291000462000220321FEF76DF9BDE8084046205D
:10292000FEF75AB908B5472000220321FEF762F9E5
:10293000BDE808404720FEF74FB970B5436802690B
:102940005B6805469E6B9E63516809B10C6801B9CE
:1029500070BD8A68324002D028464B6898471CB147
:10296000236821461C46F2E72346FAE730B503699F
:102970005C68012303FA01F1A368194223D022F411
:10298000702323F001030BBB900301D4002030BD62
:102990006068EFF31185202383F31288BFF36F8FF4
:1029A000130307D503681943016085F31188BFF34A
:1029B0006F8FEBE75303F8D5A368026823EA01039E
:1029C00013400360F1E76FF01500E0E76FF085005A
:1029D000DDE7036900205B685A689B681268134052
:1029E0000B60704710B503695868D0E901300140A9
:1029F000EFF31184202080F31288BFF36F8F1868E3
:102A000042400A4042401A6084F31188BFF36F8F3E
:102A1000002010BD03695B68D3E901231940EFF37F
:102A20001180202383F31288BFF36F8F13680B4349
:102A3000136080F31188BFF36F8F00207047036924
:102A40005B68D3E901231940EFF31180202383F35E
:102A50001288BFF36F8F136823EA0103136080F3BA
:102A60001188BFF36F8F0020704703695B68D3E95B
:102A700001231940EFF31180202383F31288BFF361
:102A80006F8F13684B40136080F31188BFF36F8F13
:102A9000002070470369426800205A60704710B5F3
:102AA00002694368116829B15A681AB1B2FBF1F2A0
:102AB0001C68226103211A6891609B689847002076
:102AC00010BD43681B685A68920743BF1B6800200B
:102AD0000B704FF0FF30704743681B685A68D2078D
:102AE000FCD419607047034610465AB15B681A68F7
:102AF0005068C00705D40120D0601B680A781A60AE
:102B0000704700207047034610465AB15B681A6848
:102B1000506810F0020005D00220D06001201B6830
:102B20001B680B707047426811688B6823F00403C0
:102B30008B6013680122DA60704743681B6858682D
:102B4000C04300F00100704743681A68936843F07F
:102B5000080393607047426811688B6823F008038C
:102B60008B6013680222DA607047FFF7E6BF4368A4
:102B70001B685868C0F340007047704743681B6883
:102B8000D86800F003007047012070470369C3E96B
:102B900001127047026953680BB19168184770477A
:102BA00010B543681A68936843F004039360EFF329
:102BB0001184202383F31288BFF36F8FFFF7EAFF9E
:102BC00084F31188BFF36F8F10BD08B50022032175
:102BD0002120FEF70FF82120FDF7FEFF2020002224
:102BE0000321FEF707F8BDE808402020FDF7F4BFF9
:102BF00008B5002203212320FDF7FCFF2320FDF769
:102C0000EBFF222000220321FDF7F4FFBDE808407E
:102C10002220FDF7E1BF08B5002203212520FDF7A2
:102C2000E9FF2520FDF7D8FF242000220321FDF72E
:102C3000E1FFBDE808402420FDF7CEBF08B5002223
:102C400003212720FDF7D6FF2720FDF7C5FF26200B
:102C500000220321FDF7CEFFBDE808402620FDF746
:102C6000BBBF08B5002203212920FDF7C3FF29209F
:102C7000FDF7B2FF282000220321FDF7BBFFBDE8CE
:102C800008402820FDF7A8BF7047002070470020AB
:102C90007047704740B1C368587810F001001EBFFC
:102CA0001878B0FA80F040097047EFF311832023C1
:102CB00083F31288BFF36F8FFEE708B5FFF7F5FFC8
:102CC00010B5D0E9003433B90020E268537843F0FE
:102CD0000103537010BD204698470028F4D0002807
:102CE000B8BF4042FF28A8BFFF20E3681870ECE798
:102CF00000F046B900F037B9202408B5EFF311838E
:102D000084F31288BFF36F8FFFF71CFDF6E790F98D
:102D10000E308B4201D0FEF71BBF00207047FEF73C
:102D20006DBFD0E9003213605A600023C0E9003360
:102D3000704708B5FFF7F5FF437B23F002034373A9
:102D40000023836008BD38B504460D46FEF7E2FD5A
:102D5000637B43F002036373E5B1A5602B689D427A
:102D600009D16B68C4E900531C606C6012E06A68AA
:102D70009A42F6D01B68002BF3D094F90E2093F9F9
:102D80000E108A42F3D09142F1DD5A68C4E9003254
:102D900014605C6038BD10B5EFF31184202383F319
:102DA0001288BFF36F8FFEF7CDFD84F31188BFF358
:102DB0006F8F10BD38B50446EFF31185202383F3E0
:102DC0001288BFF36F8F437B13F0280F0BD18368FA
:102DD0000BB1FFF7AEFF637B51B903F0FB03204655
:102DE0006373FEF7AFFD85F31188BFF36F8F38BDB6
:102DF00003F0EB03F3E701211838FFF7DBBF38B529
:102E0000EFF31185202383F31288BFF36F8F0468DB
:102E1000A0420DD034B12046FFF78BFF04F118001B
:102E200000F02AF885F31188BFF36F8F204638BD74
:102E30000024F7E7EFF31181202282F31288BFF319
:102E40006F8F027BD2070CD581F31188BFF36F8F90
:102E5000002383F31188BFF36F8F0423184602DF2A
:102E60007047437B1B0704D581F31188BFF36F8F35
:102E700070470122FEF79ABD10B5EFF311842022AE
:102E800082F31288BFF36F8F03683BB1FEF7D4FF64
:102E9000002084F31188BFF36F8F10BD6FF0150011
:102EA000F7E70246014410B58A42134603D01C7866
:102EB0000132002CF8D1181A10BDF0B5C3F1370754
:102EC000044603F01F031046FFB2082BE6B232D0CF
:102ED000102B3DD06508A40845EAC17544EA817409
:102EE0008A082D1942EB5102290941EA02716D1835
:102EF00042EB1212290A41EA02616D1842EB1222DA
:102F0000290C41EA02416D1842EB1242AD1842F120
:102F10000002EC0844EA4274D10804EB8402A6EBF8
:102F20004205EDB2092D0CD90134A5F10A0541F194
:102F30000001EDB212E0E40806F0070544EA41742E
:102F4000C908303554EA010200F8015BBDD1F0BD7B
:102F5000240906F00F0544EA01740909092D84BF0C
:102F6000ED19EDB2EDE70A44431E914200D17047DE
:102F700010B511F8014B914203F8014FF9D110BD82
:102F800002440346934200D1704703F8011BF9E75E
:0C2F90000148006870470000B8021028DB
:102F9C00D728100068301000D728100054301000CB
:102FAC00D728100040301000D72810002C3010000B
:102FBC004911100000000000952A100090301000FC
:102FCC00952A1000A4301000952A10007C301000B7
:102FDC009F2A1000083110009F2A1000F4301000B6
:102FEC009F2A1000E03010009F2A1000CC301000F7
:102FFC009F2A1000B83010006D1110000000000066
:10300C0009121000000000008B2C100000000000C2
:10301C0025111000000000008F2C10000000000093
:10302C00853610007434100004351000DA001028B6
:10303C00E00210289136100098341000043510006E
:10304C00DC001028EC0210289D361000BC34100057
:10305C0004351000DE001028F8021028A9361000E4
:10306C00E034100004351000E00010280403102890
:10307C003D3610001C34100028351000D4001028E8
:10308C00A0021028503610002834100028351000EB
:10309C00D6001028A8021028633610003434100013
:1030AC0028351000D8001028B0021028B5361000B2
:1030BC004C35100088351000E2001028180010283C
:1030CC00C13610005835100088351000E400102867
:1030DC003C001028CD3610006435100088351000E7
:1030EC00E600102860001028D9361000703510004A
:1030FC0088351000E800102884001028E5361000F0
:10310C007C35100088351000EA001028A800102823
:10311C00000000002F271000000000002F271000D7
:10312C00000000002F271000000000002F271000C7
:10313C00000000002F271000000000002F271000B7
:10314C00000000002F271000000000002F271000A7
:10315C00000000002F271000000000002F27100097
:10316C00000000002F271000000000002F27100087
:10317C00000000002F271000000000002F27100077
:10318C00000000002F271000000000002F27100067
:10319C00000000002F271000000000002F27100057
:1031AC00000000002F271000000000002F27100047
:1031BC00000000002F271000000000002F27100037
:1031CC00000000002F271000000000002F27100027
:1031DC00000000002F271000000000002F27100017
:1031EC00000000002F271000000000002F27100007
:1031FC00000000002F271000000000002F271000F7
:10320C00000000002F271000000000002F271000E6
:10321C0008311000952B100008311000952B100070
:10322C00F4301000952B1000F4301000952B10008A
:10323C00E0301000952B1000E0301000952B1000A2
:10324C00CC301000952B1000CC301000952B1000BA
:10325C00B8301000952B1000B8301000952B1000D2
:10326C00000000002F271000000000002F27100086
:10327C00000000002F271000000000002F27100076
:10328C00000000002F271000000000002F27100066
:10329C00000000002F271000000000002F27100056
:1032AC00000000002F271000000000002F27100046
:1032BC00000000002F271000000000002F27100036
:1032CC00000000002F271000000000002F27100026
:1032DC00000000002F271000000000002F27100016
:1032EC00000000002F271000000000002F27100006
:1032FC00000000002F271000000000002F271000F6
:10330C00000000002F271000000000002F271000E5
:10331C00000000002F271000000000002F271000D5
:10332C00000000002F271000000000002F271000C5
:10333C00683010003B291000543010003B2910005D
:10334C00403010003B2910002C3010003B2910009D
:10335C00000000002F271000000000002F27100095
:10336C00000000002F271000000000002F27100085
:10337C00000000002F271000000000002F27100075
:10338C00000000002F271000000000002F27100065
:10339C00000000002F271000000000002F27100055
:1033AC00000000002F271000000000002F27100045
:1033BC00000000002F271000000000002F27100035
:1033CC00000000002F271000000000002F27100025
:1033DC00000000002F271000000000002F27100015
:1033EC00000000002F271000000000002F27100005
:1033FC00000000002F271000000000002F271000F5
:10340C00000000002F271000000000002F271000E4
:10341C00FF0300004C203040FF03000003000000BD
:10342C000820304003000000030000000020304062
:10343C00030000000000102800000000060001003E
:10344C00020000005434100000001000763610000A
:10345C0006000000E0FF1700000010287E36100068
:10346C0021000000E0FF1728FFFFFFFF0030104095
:10347C002529100000000000003010400001000061
:10348C00003010400002000000301040FFFFFFFF32
:10349C00002010400F2910000000000000201040F8
:1034AC00000100000020104000020000002010402D
:1034BC00FFFFFFFF00101040F92810000000000073
:1034CC00001010400001000000101040000200002D
:1034DC0000101040FFFFFFFF00001040E328100019
:1034EC00000000000000104000010000000010402F
:1034FC000002000000001040F7271000AD2710005C
:10350C00B9271000CB271000D9271000E92710008D
:10351C003B28100085281000000000006D291000C9
:10352C00D3291000E5291000152A10003F2A10009D
:10353C006B2A1000000000000000000000000000DA
:10354C000040204040787D01632C1000003020406A
:10355C0040787D013D2C10000020204040787D01FA
:10356C00172C10000010204040787D01F12B10002A
:10357C000000204040787D01CB2B1000C32A1000A6
:10358C00D92A10000000000000000000000000001C
:10359C00E72A1000072B1000A12B1000272B10007E
:1035AC003B2B1000492B1000572B10006B2B1000DD
:1035BC006F2B10007B2B1000892C10007D2B100022
:1035CC00892B10008D2B10009C2F10009C2F1000AD
:1035DC000C301000143010002C3010002C30100067
:1035EC005374617475733A2025640A004E6F20760B
:1035FC00616C69642073656372657420666F7220F8
:10360C006B65792C207265636569766564206578D5
:10361C00706563746564206572726F7220636F6489
:10362C00650A004469676573743A20002530327866
:10363C00006D7073325F66706761696F4033303252
:10364C00303463006D7073325F66706761696F4010
:10365C00333032303038006D7073325F66706761B2
:10366C00696F4033303230303000464C4153485F44
:10367C0030005352414D5F30006770696F403130FC
:10368C0033303030006770696F4031303230303059
:10369C00006770696F4031303130303000677069CD
:1036AC006F403130303030300075617274403230E0
:1036BC003430303000756172744032303330303019
:1036CC000075617274403230323030300075617286
:1036DC0074403230313030300075617274403230A9
:1036EC0030303030006D61696E002A2A2A20426F1A
:1036FC006F74696E67205A6570687972204F532019
:10370C006275696C642076332E362E302D34313947
:10371C00372D6736343839346538373938643420C6
:10372C002A2A2A0A00286E756C6C29002A666C6F8E
:04373C0061742A008A
:10374000F72610002D07100000000000A32710002E
:10375000000000000000000000C2010000000000A6
:1037600000000000010000000040204001010000B6
:1037700000402040010200000040204000C2010043
:1037800000000000000000000100000000302040A8
:103790000101000000302040010200000030204004
:1037A00000C2010000000000000000000100000055
:1037B0000020204001010000002020400102000004
:1037C0000020204000C201000000000000000000B6
:1037D0000100000000102040010100000010204006
:1037E000010200000010204000C2010000000000A3
:1037F0000000000001000000000020400101000066
:10380000000020400102000000002040CC001028F1
:04381000CC001028B0
:1038140000000000000000000000000000000000A4
:0838240000000000000000009C
:10382C00EC001028EC001028000000000000000044
:04383C000E0000007A
:0438400015E015E09A
:0400000500100A09D4
:00000001FF
