:020000040010EA
:100000003DB8F3960000000000046C00A435000029
:1000100000000000000000000000000000000000E0
:1000200000000000000000000000000000000000D0
:1000300000000000000000000000000000000000C0
:1000400000000000000000000000000000000000B0
:10040000701C1028FD0910000D071000E9091000EC
:10041000E9091000E9091000E9091000E9091000D4
:10042000000000000000000000000000AD0B100004
:10043000E909100000000000750B100035121000D3
:10044000E10C1000E10C1000E10C1000E10C1000B8
:10045000E10C1000E10C1000E10C1000E10C1000A8
:10046000E10C1000E10C1000E10C1000E10C100098
:10047000E10C1000E10C1000E10C1000E10C100088
:10048000E10C1000E10C1000E10C1000E10C100078
:10049000E10C1000E10C1000E10C1000E10C100068
:1004A000E10C1000E10C1000E10C1000E10C100058
:1004B000E10C1000E10C1000E10C1000E10C100048
:1004C000E10C1000E10C1000E10C1000E10C100038
:1004D000E10C1000E10C1000E10C1000E10C100028
:1004E000E10C1000E10C1000E10C1000E10C100018
:1004F000E10C1000E10C1000E10C1000E10C100008
:10050000E10C1000E10C1000E10C1000E10C1000F7
:10051000E10C1000E10C1000E10C1000E10C1000E7
:10052000E10C1000E10C1000E10C1000E10C1000D7
:10053000E10C1000E10C1000E10C1000E10C1000C7
:10054000E10C1000E10C1000E10C1000E10C1000B7
:10055000E10C1000E10C1000E10C1000E10C1000A7
:10056000E10C1000E10C1000E10C1000E10C100097
:10057000E10C1000E10C1000E10C1000E10C100087
:10058000E10C1000E10C1000E10C1000E10C100077
:10059000E10C1000E10C1000E10C1000E10C100067
:1005A000E10C1000E10C1000E10C1000E10C100057
:1005B000E10C1000E10C1000E10C1000E10C100047
:1005C000F0B50024C1B0FC22214601A8009402F03D
:1005D00015FD4FF48071684600F012FF0C4802F0E0
:1005E000C2F86D460B4F0C4E230702D1384602F07D
:1005F000BAF8304615F8011B013402F0B4F8B4F52E
:10060000807FF1D1034802F0AEF841B0F0BD00BFE9
:10061000703610000F3710009536100008B51249DB
:10062000124802F0A0F800F00BFF40F201139842CC
:10063000014611D10E4802F096F8802000F00EFF1E
:10064000014668B90B4802F08EF80B4802F08BF8AF
:10065000FFF7B6FF002008BD084802F084F8ECE779
:10066000074802F080F8F3E79B361000A036100030
:10067000B03610001137100042371000DD36100080
:100680005C371000014B1B68184700BF00001028A2
:1006900030B585B004460D4610220021684602F0B0
:1006A000ADFC02238DF80230044B2A4621466846F1
:1006B000019301F01BFD05B030BD00BF85061000A1
:1006C000014B1860704700BF0000102880B5054638
:1006D0000E461746984601F01DFB034602F096FCB5
:1006E0000446DFF81890424649F800303946304653
:1006F000A84754F8090000F0E7F900BF080000001F
:10070000014B036000207047C434100008B5034B50
:100710001B689847BDE8084000F026B80400102880
:1007200030BFFFF7FDBF00BF2DE9F04105460B4E7E
:10073000DFF82C80324606EB0807CC1B204609491F
:1007400002F04FFCA01942460021083C02F056FC82
:100750002C6707F10800BDE8F08100BF0000000031
:1007600004000000A0341000074A936893F90E10AB
:10077000002907DB526993421FBF044A536843F0C4
:1007800080535360704700BF3C03102800ED00E029
:10079000154B9A6A12F0007F9A6A14BF1E201D2022
:1007A00012F0807F9A6A18BF1F2012F4801F9A6A85
:1007B00018BF202012F4002F9A6A18BF212012F4CB
:1007C000802F9A6A18BF222012F4003F9A6A18BF3D
:1007D000232012F4803F9A6A18BF24206FEA024255
:1007E0006FEA12429A62704700ED00E010B5164BB6
:1007F0009A6A9C6A12F4805F14BF1722162214F4BE
:10080000006F9C6A18BF1822A40509D59A6B9A6AD2
:10081000120404D518B19A6A22F400429A6219228D
:10082000094B986A10F4806F986A18BF1A2210F466
:10083000807F986A40F47F4098624FF000030CBFBD
:1008400010461B200B7010BD00ED00E010B5154BDD
:100850000246986A9C6A10F0100F14BF11201020F5
:1008600014F0080F9C6A18BF1220A40709D5586B12
:10087000986A000604D51AB19A6A22F080029A6238
:100880001320084B9A6A12F0010F9A6A18BF1420BD
:10089000D20658BF9A6A9A6A42F0FF029A6200230F
:1008A0000B7010BD00ED00E0F0B54A4B04465B68EC
:1008B00000258BB0C3F3080385F31188BFF36F8F56
:1008C00002F07F40B0F17F4F16D1D60714D4550601
:1008D00003D4100704D4012504E012F0040200D070
:1008E0000C4600250022033B8DF80720032B05D87A
:1008F000DFE803F02462665F2C46F3E700239DF8EF
:100900000720CAB902AE04F12007324620686168A8
:10091000083403C2BC421646F7D1099A002D53D0C1
:10092000C2F3080121B96FEA52226FEA422209920A
:10093000184602A901F025FF0BB0F0BD254BDA6A7D
:100940009107DBD4DA6A002AD8DBDA6A5200D5D5FF
:100950005A69A16942F480725A61BFF34F8FBFF3A5
:100960006F8F5A6931F8021C22F480725A61BFF30A
:100970004F8FBFF36F8F4DF60272914201D1236802
:10098000BDE79A6AD2B232B101200DF10701FFF73B
:100990005DFF0346B3E79A6A12F47F4F05D001204A
:1009A0000DF10701FFF722FFF3E79B6AB3F5803FE4
:1009B000A4D3FFF7EDFEECE700200DF10701E6E719
:1009C00000200DF10701EDE722F4FF7222F0010291
:1009D000ADE700BF00ED00E0024A536943F01003A9
:1009E0005361704700ED00E0EFF30880EFF30981F9
:1009F00001B57246FFF758FF01BD00BF002080F32C
:100A00001488BFF36F8F002080F30A8880F30B886F
:100A100000200E490860BFF34F8F0D4880F308880F
:100A200000F02CF8202080F311880A484FF4006170
:100A3000401880F30988EFF314800221084380F303
:100A40001488BFF36F8F00F0E5F8000094ED00E02C
:100A5000701C102870031028002318460649D1F88E
:100A60009020C2F30722934200DB7047C1F8983010
:100A7000C1F8A0000133F6E700ED00E010B572B652
:100A8000002484F31388FFF7E7FF23464FF0FF307D
:100A90000C4A03F120010133102B42F82100F8D158
:100AA00000234FF0FF30074A03F160010133102BA0
:100AB00042F82100F8D162B6BFF34F8FBFF36F8FBA
:100AC00010BD00BF00E100E0084B9B6883420BD1E2
:100AD000EFF3058343B1064B5A6842F080525A60E7
:100AE0005A6A22F400425A6202F0DAB93C03102832
:100AF00000ED00E06FF00A01084A93689967084921
:100B000058674B6843F080534B60002383F3118890
:100B1000BFF36F8F9368986F704700BF3C03102836
:100B200000ED00E0104A936883F87D00EFF3118335
:100B3000202383F31288BFF36F8F4FF00061536956
:100B400020F0FF009360094A5160196F084A116054
:100B5000002193F87D2010435A6F596782F3118862
:100B6000BFF36F8F704700BF3C03102800ED00E01B
:100B7000D00210280C498A6882F87DE04FF03000DE
:100B80001044EFF3098C80E8F01F74467046FFF7BD
:100B9000C9FFA64604498A68864602F1300090E8FB
:100BA000F01F8CF3098870473C0310281EF0040FD7
:100BB0000CBFEFF30880EFF30980816911F8021C84
:100BC0000229FFD001B501F0E2FD01BD40B20028CD
:100BD00007DB01234109034A00F01F00834042F86C
:100BE0002130704700E100E040B2002801F101012E
:100BF000ACBF00F16040064B4FEA4111C9B2ABBF38
:100C000000F5614000F00F0080F8001319547047A0
:100C100014ED00E008B5084B084A23F07F03936009
:100C2000BFF34F8FBFF36F8F00F0CEFC01F0FEF8E3
:100C300000F04AF800F012FD0004100000ED00E0A2
:100C400042F8203C009B0C4942F81C3C019B21F0DF
:100C5000010142F8183C029B42F8081C42F8143C7F
:100C60004FF0807342F8043C002343674FF43C4349
:100C7000203A0265C3677047CD0610000B4B0E4645
:100C80009860016F0A4B154619602C4686F3098857
:100C90004FF00000074B984720464FF000014FF0FF
:100CA00000024FF00003044C204700BF3C03102813
:100CB000D0021028A3271000CD0610001022014BEF
:100CC0001A61704700ED00E0002320210348C2189C
:100CD0000133602B82F80013F9D1704700E100E086
:100CE00008B5EFF30583064A103B02EBC30152F847
:100CF000330049688847BDE80840FFF735BD00BFAD
:100D0000A03110001FB5094C094A234601210948AA
:100D100000F0FAF800230393074B0121E41A01A81D
:100D20000193029400F0FAF804B010BD00001828F6
:100D300000001028C43410001801102810B50C7AD7
:100D40000B6804F01F0223F01F031A43CB686409E9
:100D500023F01F03054943EA440343F00103C1F8AC
:100D60009800C1F89C20C1F8A03010BD00ED00E053
:100D700010B5074BD3F89030C3F30723013B9842DB
:100D800002D8FFF7DBFF10BD6FF01500FBE700BFD7
:100D900000ED00E02DE9F04F0F46144606464FF0F7
:100DA00000084D4D85B0B84580F29280D6F8049089
:100DB000B9F1000F36D0B9F11F0F40F2878019F05A
:100DC0001F0F40F08380D6F800A01AF01F0F7DD1CE
:100DD000504601F0FAFC834609EB0A00013801F0A5
:100DE000F4FC834572D11BF1160F6FD05C456DDDAD
:100DF000C5F898B0D5F89C10C5F898B0D5F8A030D3
:100E000021F01F0143F01F0AD6E900321A4499422B
:100E100002F1FF391ED1CA4508D131465FFA8BF085
:100E200001F0DCFC08F101080C36BCE73146C5F8DE
:100E300098B0D5F89C3022F01F0203F01F03134333
:100E4000C5F89C30E0B201F0C9FC10F1160F3DD09E
:100E5000441CE7E7C5F898B0D5F8A020013B23F083
:100E60001F0302F01F021343CA453146E0B2C5F822
:100E7000A030E8D001F0B2FC10F1160F26D0C5F872
:100E800098B0D5F89C209DF808300AF1FF3A62F33B
:100E900004038DF80830D5F8A0309DF808205B08D1
:100EA00063F347128DF80820D6E90032134400930B
:100EB00023F01F035344A3EB0903013023F01F0366
:100EC0006946C0B20393FFF753FFBEE76FF0150406
:100ED000204605B0BDE8F08F00ED00E00522044B90
:100EE000C3F89420BFF34F8FBFF36F8F704700BFDD
:100EF00000ED00E0BFF35F8F0022024BC3F89420A7
:100F0000704700BF00ED00E010B5034C2278FFF7FA
:100F100041FF207010BD00BF6C0310282DE9F74F72
:100F2000294D8A4606464FF00008AB46274FD0456C
:100F30001BDAD6F80490B9F1000F3FD031680846AB
:100F4000019101F042FC0199044609EB01000138CE
:100F500001F03BFC84424FF014021D4B08D002FB11
:100F600008F36FF015024BF8032003B0BDE8F08FD3
:100F700014F1160F2C60F8D01978A142F5DD02FBB0
:100F800008B0C7F89840C7F89840D7F89C4000F1DF
:100F90000801007B64F304000871D7F8A0000C7905
:100FA000400860F347140C71D7F89C1021F01F0122
:100FB0006960D7F8A01021F01F01296108F101082C
:100FC00014350C36B3E700BFD402102800ED00E062
:100FD0006C031028F0B54149414CD1F89030256898
:100FE000C3F307239D4287B075D80020FFF782FF27
:100FF0003C4BC1F8C030854216D13B4C01A825704E
:10100000FFF77EFB00250646384FAE4213D1002085
:1010100023783249D1F89020C2F30722934254DB5F
:10102000FFF75CFF00204EE0616801EB0011FFF765
:1010300085FE0130DFE70199280101EB0513DA682D
:101040003A40B2F5001F22D0B2F5800F2CD0B2F595
:10105000801F36D15A689B680958013B22F01F0057
:1010600003440120844623F01F0340EA4C10CDE9DD
:1010700002218DF8100002A920780593FFF778FE71
:1010800000281EDB2378013501332370BDE75A6841
:101090009B680958013B22F01F0003444FF0020CEB
:1010A000012023F01F03E0E75A689B680958013BC1
:1010B00022F01F0003444FF0000C062023F01F0312
:1010C000D3E76FF0150007B0F0BDC1F89830C1F854
:1010D000A00001339EE74FF0FF30F4E700ED00E0A1
:1010E000D0341000AAFF44006C0310280000F0FF69
:1010F00008B5024B1B689847002008BDE80210287D
:10110000034B044A1860937843F0020393707047CE
:10111000E80210280800102808B50649064821F002
:101120000701C1F1205202F5C01201F0C2FA0020FD
:1011300008BD00BF772C1028EC0210284FF63102B2
:10114000064B00209A614CF26F4203F580539A617E
:101150004FF49E5203F580539A617047000010408F
:1011600008B5074801F0CCFD38B10648FFF7C8FFC5
:101170000448FFF7A5FA002008BD6FF01200FBE756
:101180008C311000891110000A2838B50446074D2B
:1011900004D1AB680D2128465B689847AB680348CB
:1011A0005B68E1B29847204638BD00BF8C31100023
:1011B0004FF0E02310B50F499C691A6908689B69D4
:1011C0000D4902F4803234B993B903464AB90A682A
:1011D0001044C01A10BD002B08BF03460AB9A34231
:1011E000F5D90A6802440A604FF0E0221269EEE77E
:1011F0000446F3E7340310282803102820220A4B62
:10120000002083F8232046F2A812084B1A60084BEE
:1012100046F2A71218604FF0E0235A6198611A69EC
:1012200042F007021A61704700ED00E03403102815
:101230002803102808B5FFF7BBFF0C4B0C4A1868B1
:10124000116808441060002246F2A8111A60094A89
:101250001368C01AB0FBF1F001FB0033136000F01B
:10126000BFFEBDE80840FFF77FBA00BF2803102883
:10127000300310282C0310282DE9F041324E91B193
:10128000421C0AD14FF0E022136923F001031361DD
:101290004FF07F433360BDE8F0813468012807DCFC
:1012A0004FF000080BE0431C3468F7D140F29E2059
:1012B00040F29F239842A8BF184600F1FF38EFF391
:1012C0001185202383F31288BFF36F8FFFF770FF20
:1012D0004FF0E0230022DFF874C09F69DCF8003093
:1012E00018441B4B1A601B4B1A68831A29D446F208
:1012F000A81E0EFB083303F5C3432733B3FBFEF1EF
:10130000131A40F21A620EFB0133934238BF1346A0
:10131000114A934228BF13464FF0E0223360013B4D
:101320009169536100238F42A7EB010738BF3F1932
:1013300038449361CCF8000085F31188BFF36F8FB8
:10134000A9E740F21A63E7E73403102830031028B6
:10135000280310282C031028B095FF0038B5EFF3B0
:101360001185202383F31288BFF36F8F084B1C680D
:10137000084B1B68E41AFFF71BFF85F31188BFF3C6
:101380006F8F46F2A8132044B0FBF3F038BD00BFC6
:10139000300310282C0310282DE9F0411F46164B6E
:1013A000044693F800800D461646A2B0B8F1000F2F
:1013B00015D1684601F0EFF93A4631462846289B98
:1013C000A0470446684601F0E7F9B8F1000F02D0E3
:1013D0000A4800F023FA204622B0BDE8F0814FF021
:1013E000FF324FF0FF33054800F0A0F90028E0D0AD
:1013F0006FF08304EFE700BF6D0310280001102891
:1014000070B5302692B006AB05460C463246002138
:10141000184601F0F3FDCDE90454CDE9020654B1BC
:10142000012304AA009200210448019302AA00F0BB
:1014300023F812B070BD2046FBE700BF000100405A
:10144000002307B51A46194600930348FFF7A4FF87
:1014500003B05DF804FB00BF41060810002307B588
:1014600001461A4600930348FFF796FF03B05DF864
:1014700004FB00BF4906081010B4B1F5004F029CF0
:101480000ED2042B0CD8042C0AD8240444EA03649A
:10149000134644EA0102014610BC0348FFF77CBF33
:1014A0006FF0800010BC70476106081038B5EFF38C
:1014B0001185202383F31288BFF36F8F064B9C683E
:1014C00001F031FC85F31188BFF36F8F2046BDE832
:1014D0003840FFF7F9BA00BF3C03102838B5094B74
:1014E00053F82040013053F82050A54200D838BDB1
:1014F000636823B1204601F019FC0834F5E723683E
:101500009847FAE758361000012270B5294B03209E
:1015100086B01A70FFF7E2FF00F0D0FD0420FFF75D
:10152000DDFF254C254D2646AE4204F1300410D394
:1015300000F0B4FB204C224EAC4226D300F0C2FB9C
:10154000FFF76CF81F4A137B23F00103137306B0F7
:1015500070BD54F80C3C059354F8103C049354F8B7
:10156000143C039354F8183C029354F81C3C019328
:1015700054F8203C009354E90A2354E90C0100F08C
:1015800089F954F8303C5E65CDE7D4E90A23B3F11C
:10159000FF3F08BFB2F1FF3F05D052EA03012068C8
:1015A00003D101F0F2FB3034C6E73146183000F0C9
:1015B0009DFCF8E76D031028A0341000A034100043
:1015C000632E10009801102808B50348034A002133
:1015D000121A01F0C3FB08BD18011028700310286F
:1015E0000023012270B586B0CDE904230F220193B8
:1015F000CDE9023214230446124D134E03FB00556D
:10160000124906EBC016124B01EB00214FF4807219
:101610003046009500F03EF9737B2C7423F00403F0
:1016200073730C4B013403EBC4236B600A4BEE6005
:10163000D3E8EF1F0131C3E8E21F002AF8D106B05A
:1016400070BD00BF3C03102818011028700B102833
:10165000652D10007003102838031028BFB5002036
:10166000FFF73CFF294B83F308880024E023284D33
:10167000284E85F82230EC772C766C76AC766B6A47
:10168000254F43F4E0236B62FFF7A6F9FFF716FB43
:101690004FF0FF33AB62EB62FFF79CFCFFF732FBCE
:1016A00040F201131D4D2846AB81C5E9184400F0F6
:1016B000FFFCB56001F023FB0120FFF70FFF0220C4
:1016C000174DFFF70BFF00F01DFB164B75610593DF
:1016D000012315494FF48052CDE9034328463B4688
:1016E000CDE90144009400F0D5F806466A7B28460F
:1016F00022F004026A7301F084FB2046FFF770FFBA
:101700003A4631462846FFF7B9FA00BF700B102859
:1017100000ED00E03C031028091510001802102805
:10172000980110283D381000700C10282DE9F34165
:10173000044617461E46EFF31188202383F31288D0
:10174000BFF36F8FC368334A7BB18068916888426A
:1017500019D057EA060318D188F31188BFF36F8FA9
:101760006FF00F0002B0BDE8F081916891F90E10A2
:101770000133E36093682161A36088F31188BFF3AC
:101780006F8F0020EEE72169F2E791F90E1090F9D2
:101790000E306FF07E029942A8BF19469142B8BF41
:1017A00011468B422DDD01F0E8FA054622464146FE
:1017B000CDE90076184800F0BDF90028E1D0EFF33C
:1017C0001186202383F31288BFF36F8FA068D0B1F6
:1017D000236821699C420AD04BB193F90E3099429B
:1017E000A8BF19466FF07E039942B8BF194601F0B1
:1017F000C4FA40B13146084800F00CFA6FF00A0014
:10180000B0E70025D2E7002DF4D186F31188BFF3AD
:101810006F8FF3E73C0310286E03102838B58368F8
:10182000044663B3194A926893422BD1C368012BD3
:1018300003D9013BC360002038BDEFF3118520239D
:1018400083F31288BFF36F8F0169806801F095FA06
:10185000204601F00AFBA06058B190F90E202261E9
:101860000022826701F0CDFA2946094800F0D2F93A
:10187000E1E7E06085F31188BFF36F8FDBE76FF07E
:101880001500D9E74FF0FF30D6E700BF3C03102822
:101890006E0310282DE9F043984685B000F15803F7
:1018A000C0E91633109B002603730423073222F08D
:1018B000070543730F9B01EB05090F4683734946E8
:1018C000C0E906668660C6730446FEF72DFF0E9BD0
:1018D000073020F00700A066C4E9187502930D9B3D
:1018E000A9EB000901930C9B4A46009339464346F5
:1018F0002046FFF7A5F9054B66659B6803B1DB6ED3
:101900004846E36605B0BDE8F08300BF3C031028FD
:1019100038B50D4D2B4653F8184F9C4200D004B9F2
:10192000EC68AB6838B95A7BD20604D1A26912B907
:10193000DA897F2A05D89C4202D0204600F01EFAA0
:1019400023466B6138BD00BF3C03102808B590F9F1
:101950000D200146002A437B04DA03F07F03437322
:1019600001F015FA044B9868431A58425841BDE8F3
:101970000840FFF7CDBF00BF3C03102870B490F9BA
:101980000D30427B002B29DBD30627D183692BBB8B
:10199000134962F07F0242730A4652F8184F94428C
:1019A00018BF2346CC6923B9C0E900242060C86170
:1019B0000CE090F90E5093F90E60B5420AD0AE4299
:1019C00008DD5A68C0E9003210605860002070BC21
:1019D000FFF79EBF9C42E7D01B68E4E770BC7047EE
:1019E0003C031028002A2DE9F0410E460CBF1021BF
:1019F0000821427B044611420FD141EA0203D20979
:101A000018D1437308291BD00120FFF781FFBFF3D2
:101A10005F8F637B23F060036373274B9B68A34254
:101A200043D1EFF30583002B3FD13046BDE8F041B1
:101A3000FFF760B803F07F03437301F0A8F9E1E713
:101A4000A36813B1204601F0AAF904F1180001F0CF
:101A500049FA4FF0000804F15807A56DBD4200D0C7
:101A6000B5B9154FBB689C42CED1EFF30583002B6F
:101A7000CAD00120FFF74CFF40F201130F4DAB819C
:101A800000232846C5E9183300F012FBBD60BEE70D
:101A9000284601F084F905F1180001F023FA2846E0
:101AA000C5F87880FFF76AFFD7E786F31188BFF3A0
:101AB0006F8FBDE8F08100BF3C031028180210288A
:101AC00070B590F90D200146002A437B04DA03F03B
:101AD0007F03437301F05BF9154A4B7B104663F0BB
:101AE0007F034B7350F8183FD469834208BF00232B
:101AF00023B9C1E900042160D1610CE091F90E50D5
:101B000093F90E60B5420ED0AE420CDD5868C1E9C3
:101B10000030016059609068BDE87040431A584237
:101B20005841FFF7F5BE9C42E3D01B68E0E700BFD9
:101B30003C031028F8B5124B0C46DDE90676114639
:101B40009868104A1060EFF31182202282F3128805
:101B5000BFF36F8F9D68284601F02BF9B6F1FF3F68
:101B600008BFB7F1FF3F06D03A463346064905F1B4
:101B7000180000F0BBF92046BDE8F840FEF7BABFF8
:101B80003C0310285C031028632E1000F8B50446AF
:101B9000EFF31186202383F31288BFF36F8F437B0B
:101BA00049B2DA0619D18569BDB903F07F034373E1
:101BB00001F0EDF8437B164A63F07F03437313464D
:101BC000817353F8180F984218BF0546D0695DB964
:101BD000C4E900300460D46111E00020A17386F3F1
:101BE0001188BFF36F8FF8BD95F90E70B9420BD015
:101BF0008F4209DD6B68C4E900531C606C600120F2
:101C0000FFF786FE0120EAE7A842E1D02D68DEE773
:101C10003C03102849B9EFF3058030B9054B5A69E8
:101C20009B689A4201D0FEF765BF81F31188BFF32C
:101C30006F8F70473C03102810B5EFF311842022FA
:101C400082F31288BFF36F8F427B510704D484F371
:101C50001188BFF36F8F10BD22F004024273FFF7AB
:101C60008DFE2146BDE810400148FFF7D3BF00BFFD
:101C70006E031028034648B9EFF3058232B9064ACD
:101C800051699268914201D0FEF734BF83F3118805
:101C9000BFF36F8F704700BF3C031028EFF3118133
:101CA000202383F31288BFF36F8F054B9A68D37B91
:101CB000013BD37381F31188BFF36F8F704700BF6F
:101CC0003C03102838B5EFF31185202484F31288E3
:101CD000BFF36F8F0A4B00209A68D37B0133D37315
:101CE000FFF716FE85F31188BFF36F8FEFF31180B6
:101CF00084F31288BFF36F8FBDE83840FFF7BABF97
:101D00003C031028024B03F11802C3E90622704776
:101D10003C031028014B9868704700BF3C03102813
:101D20000122044BC01A044BC0105843034B1A54F1
:101D3000704700BF98021028ABAAAAAA6E03102809
:101D4000C3897F2B12D80A4B1B6863B1094B90F9EA
:101D50000E201B689A4209DB437BDB0606D1064B4B
:101D6000C31A18BF012303F0010070470023FAE7EC
:101D700064031028600310281801102870B50E4B5A
:101D80000E4C1E7C182303FB06440546204601F03A
:101D9000A9F800220A4B28469A55FFF7D1FF48B10F
:101DA000084B2046BDE870401A680749013AD3172E
:101DB00000F09CB870BD00BF3C03102898021028AA
:101DC0006E03102864031028211D100038B5EFF3AE
:101DD0001185202383F31288BFF36F8F104B114AB4
:101DE0009C681068A04206D1FFF7C8FF85F31188F0
:101DF000BFF36F8F38BD00211B7C11600A4AD35C92
:101E0000002BF3D02046FFF79BFF0028EED0637B2A
:101E1000DB0602D12046FFF753FE2046E4E700BF71
:101E20003C0310285C0310286E03102808B50648F0
:101E3000064A0749121A00F093FFBDE80840054A18
:101E40000549064800F08CBF000010281401102836
:101E50008C381000000000008C38100000001028A2
:101E6000034B1B680BB9FFF779BA0020704700BF1E
:101E70006803102830B570B10B4B5B6898420AD0EC
:101E8000036843B1D3E90421D0E90445121941EBB9
:101E90000501C3E90421D0E9003213605A60002330
:101EA000C0E9003330BD00BFCC00102810B50E4B88
:101EB0001C689C4204D1FFF7D3FF6FF0004010BDB7
:101EC000FFF7CEFF002CF8D0D4E904321B1A62EBE6
:101ED000E072B3F1004F72F10001EEDA002AACBFFC
:101EE00018460020EBE700BFCC001028B3F1FF3FFD
:101EF00008BFB2F1FF3FF8B504461D4616465ED056
:101F00008160EFF31187202383F31288BFF36F8F73
:101F1000013275F1FF3324DA6FF001032D49D1E965
:101F200000209B1A4FF0FF3262EB00009E1B60EB1B
:101F30000500012E70F1000301DA01260020C4E93A
:101F40000460254ED6F800C07568B44508BF4FF050
:101F5000000CBCF1000F0DD1C4E900652C60746069
:101F60001CE0FFF77DFF013645F10005361845EB13
:101F7000E070E4E7DCE90420D4E90431934271EB3A
:101F8000000E1DDAD21ADCF8043060EB0100CCE957
:101F90000420C4E900C31C60CCF804403368B34299
:101FA00009D09C4207D10D4B1C6824B9FFF77EFF76
:101FB0002146FFF761F987F31188BFF36F8FF8BDF2
:101FC0009B1A61EB0001AC45C4E90431C4D0DCF8D4
:101FD00000C0BEE7B0021028CC001028680310280B
:101FE0002DE9F84FEFF3118C202383F31288BFF310
:101FF0006F8FDFF8B0A0DFF8B0900024C9F80000C0
:10200000DAF800000025504508BF0020274FE046C1
:10201000D7E90021D9F8003078B3D0E9046C4FEA51
:10202000E37EB3427EEB0C0B05DAF61A6CEB0E0482
:10203000C0E9046421E0B21841EBE671C0E904454F
:10204000C7E90021FFF716FF88F31188BFF36F8FF0
:1020500083689847EFF31188202383F31288BFF336
:102060006F8FD9F80030DAF800009B1B5045C4464A
:10207000C9F80030CBD1D7E9002100249A1841EBF0
:10208000E373C7E90023C9F80040FFF70FFF2146BB
:10209000FFF7F2F888F31188BFF36F8FBDE8F84FB0
:1020A000FFF794BECC00102868031028B002102857
:1020B000014BC366704700BFEC001028014800F0D8
:1020C00052BB00BF4238100038B5064C064DAC423A
:1020D00001D3002038BD2046D4E9011200F017FFDB
:1020E0001434F4E7EC001028000110282DE9F04F1B
:1020F00043688DB015468046029383789A0740F175
:102100000D8100240E78002E00F00A81252E0BD0C0
:102110004B1C0393013441463046029B98470028EC
:10212000C0F2F6800399EDE74E788B1C252E0393C1
:10213000F0D00027B946BB46BBF11F0F38D8A6F137
:102140002003102B0AD8DFE803F02A090930090917
:10215000092109090928092D09091F00A6F13003E1
:10216000092B33D92A2E37D11BF0400F55F8043BE9
:1021700040F08280002BA7BF4BF0200B9946C3F1A3
:1021800000094BF0280B01E04BF0010B039B13F807
:10219000016B0393002ECFD130E04BF0020B4BF0DC
:1021A000040BF3E74BF0080BF0E74BF0100BEDE7F7
:1021B000BBF17F0F19D8A6F13003092BD2D81BF041
:1021C000400F03D00A2101FB0737DFE70A214BF05C
:1021D000200B01FB0939D9E72E2E06D11BF0400F49
:1021E00040F09E804BF0400BD0E76C2E31D02BD8C6
:1021F000682E36D06A2E3CD04C2E3AD0002F46F0B6
:102200002003B8BF2BF04002A3F16501BCBF00273B
:102210001FFA82FB022901D9612B2FD1073507272D
:10222000DFF8ACA225F0070508351BF0080F66D0D3
:102230000AEB070B56465E4563D1A4EB0A0AA9EBED
:10224000070906EB0A026FE1742E9FD07A2E9DD00B
:10225000D4E71BF0800F18BF4BF4007B4BF0800BD2
:1022600094E71BF4807F18BF4BF4007B4BF4807B1A
:102270008CE74BF4207B89E71F4687E7A6F16301D3
:10228000122900F2F080DFE811F013004F00EE0099
:10229000EE00EE00EE004F00EE00EE00EE00EE006D
:1022A000EE00FE00E900EE00EE001B00EE00AF00C5
:1022B00055F8043B01270DF1180A8DF81830B4E7E2
:1022C00055F804AB834BBAF1000F08BF9A461BF0D8
:1022D000400F504614BF39464FF0FF3100F01FFE4B
:1022E0000746A2E741462020029B984700280FDBC3
:1022F000013EB742F6D34C44B146A41B98E74E4684
:10230000F7E7414616F8010B029B9847002892DA3E
:1023100098F8023043F0040388F802304FF0FF349D
:1023200020460DB0BDE8F08F1BF0800F34D01BF4B9
:10233000007F2CD0073525F00705AA4669685AF8B2
:10234000080B2BF010050029ADB237DA404245F4F6
:10235000806561EB41010DF1180B0A235A4600F02C
:10236000EAFDA0EB0B0301936B0662D5019B25F000
:1023700001019F4289B240F3A180002E00F09980B4
:1023800015F0100240F09C80BB460D4623E0AA46A3
:102390005AF8040BC117D4E7AA461BF4807F5AF8F9
:1023A000041B01D10846F5E71BF4007F19BF48B2B2
:1023B00041F3C01108B241F3C031C2E750EA010352
:1023C000C9D11BF0400FC6D0002FC4D12BF0110291
:1023D000BB46019795B240F2064115EA01021CBFC7
:1023E0000BF1010B00222CE02BF010020A231FFA44
:1023F00082FB1BF0800C49D01BF4007115BF073520
:10240000AA4625F007055AF8040B1EBFAA466968BC
:102410005AF8080B50EA010545D12BF016051BF0C0
:10242000400FADB242D0002F40D12BF017020197E0
:1024300095B215F0100248D0019B002E42D103F155
:10244000010B29075AD4EB0706D5D9456FDDA9EB57
:102450000B030199CB465F185B4649E04BF0100B2C
:1024600010237826C5E7782B04D1C6F1780343F012
:102470001003BEE741462520029B98470028FFF63F
:1024800047AF023447E608230026B2E7AA461BF40A
:1024900080715AF8040BBDD01BF400711ABFC0B292
:1024A000614680B2B6E72BF0060295B20DF1180B2B
:1024B00054E725F01105BB46ADB28CE70D46B8E7F1
:1024C0003B460D4603F1020BBBE7DDF804B082E7A3
:1024D000843810007D381000CDE9043241462020B8
:1024E000029B98470028FFF613AF049B059A01331F
:1024F0009945F1DCA4EB0B019B46CC180AB341468D
:102500003020029B98470028FFF602AF8EB90134B5
:102510002744391B019B994224DC1D4655BB019A77
:10252000A9EB0B09554622441446914433E0019F20
:1025300092E7023441463046029B98470028E7DA8A
:10254000E6E640F206410D42E2D015F0020F04F13A
:102550000104414614BF2B20202015F4806F18BFC2
:102560002D20E9E741463020029B0134984700289E
:10257000CFDACDE606AB013D4146585D029B984758
:102580000028CBDAC4E641462020029B013498475C
:102590000028FFF6BDAEA9EB0403002BF3DCC1E578
:1025A0007047836800EBC101B3F5004F2CBF51F8B1
:1025B000220031F81200704700EBC1018068B0F5CD
:1025C000004F2CBF41F8223021F812307047012211
:1025D00008B5FFF7E6FFD04008BD836800EBC101F6
:1025E000B3F5004F08D34B681AB143F001034B60B9
:1025F000704723F00103FAE74B881AB143F0010357
:102600004B80704723F00103FAE753000122FFF7E4
:10261000D3BFB0F5004F34BF04230823481C083350
:10262000A0EBD300B0FA80F0C0F11F0070472DE995
:10263000F0410D4686680446FFF7C9FFB6F5004F26
:10264000014601D3012832D03046FFF7E2FF04EB08
:1026500080010E6996B90122E36882401343E3606A
:1026600002220D612B4629462046FFF7A5FF0322D3
:1026700029462046BDE8F041FFF79EBF02223146C1
:102680002046FFF78EFF0746034629462046FFF700
:1026900093FF0322334629462046FFF78DFF394634
:1026A0002B462046FFF788FF02223146E1E7BDE8CE
:1026B000F081B2F5802F2CBF082304232DE9F041CF
:1026C0000026D21A8C18CD1D25F0070524F007042A
:1026D000641BE408056021462046AC60EE60FFF70D
:1026E00098FF421D9200013002F107074FEAD70719
:1026F0003146A2F1100205F11000B8BF324600F0D9
:102700007DFC3A4631462846FFF77FFF3346324686
:1027100031462846FFF750FFA4EB0708284631460C
:102720000122FFF75AFF42463946FFF76EFF3B464C
:10273000324639462846FFF73FFF21462846FFF735
:1027400064FF4346324621462846FFF735FF2146BF
:1027500028460122FFF741FF3946BDE8F041FFF767
:1027600066BF002070470FB407B504A951F8040BE9
:102770000191FDF78DFF03B05DF804EB04B07047E5
:102780007047012801D1EFF30583FEF78FBE0146A4
:102790000068FFF7F6BF7047704700210120FFF780
:1027A000F0BF61B662B680F31188BFF36F8F7047D8
:1027B00072B6002383F31188BFF36F8FBFF34F8F7F
:1027C00030BF62B6BFF36F8F704740E800F313F479
:1027D000803FD8B208BF6FF01500704730B50C6865
:1027E0004B6885B00A894D890094013B24F01F0491
:1027F000234402F01F0242EA451223F01F036946F8
:102800008DF808200393FEF7B3FA05B030BD08B584
:10281000FEF76EFC002008BD436800205B681B6863
:102820000B60704743685B68586842400A4042400A
:102830005A6000207047436800205A6853680B4371
:1028400053607047436800205A68536823EA0103C5
:1028500053607047436800205A6853684B40536088
:102860007047012310B512F4403F446803FA01F1A8
:1028700016D012F0320F13D193030ED5130307D5E0
:10288000FFF7D9FF6368196100206368D96110BD43
:102890005303F7D5FFF7D6FFF4E763685961F3E711
:1028A0006FF08500F3E730B5B3F1C06F44681CD01A
:1028B000B2F5800F19D00120B2F5001F656800FA4B
:1028C00001F102D16962002030BDB2F1A07F0CBFDE
:1028D000A962E9626268B3F1806F0CBF1163516352
:1028E0006368996363681962EDE76FF08500EBE751
:1028F00010B503695868F8B1884219D19C68086816
:10290000A142586000D19860002008602AB15A683E
:102910000A609A68596002B99960002010E081420B
:1029200006D10868206098688142EDD19C60EBE791
:10293000044600680028F2D1002AE8D16FF01500A3
:1029400010BD08B543689B689847002008BD08B5CE
:10295000442000220321FEF747F9BDE80840442047
:10296000FEF734B908B5452000220321FEF73CF9F3
:10297000BDE808404520FEF729B908B546200022E9
:102980000321FEF731F9BDE808404620FEF71EB9E5
:1029900008B5472000220321FEF726F9BDE80840CC
:1029A0004720FEF713B970B5436802695B680546B6
:1029B0009E6B9E63516809B10C6801B970BD8A684D
:1029C000324002D028464B6898471CB12368214604
:1029D0001C46F2E72346FAE730B503695C68012339
:1029E00003FA01F1A368194223D022F4702323F0E3
:1029F00001030BBB900301D4002030BD6068EFF3EE
:102A00001185202383F31288BFF36F8F130307D53B
:102A100003681943016085F31188BFF36F8FEBE7FB
:102A20005303F8D5A368026823EA01031340036047
:102A3000F1E76FF01500E0E76FF08500DDE703696F
:102A400000205B685A689B68126813400B607047EF
:102A500010B503695868D0E901300140EFF31184E3
:102A6000202080F31288BFF36F8F186842400A401D
:102A700042401A6084F31188BFF36F8F002010BDAD
:102A800003695B68D3E901231940EFF31180202328
:102A900083F31288BFF36F8F13680B43136080F3C7
:102AA0001188BFF36F8F0020704703695B68D3E91B
:102AB00001231940EFF31180202383F31288BFF321
:102AC0006F8F136823EA0103136080F31188BFF34B
:102AD0006F8F0020704703695B68D3E901231940B9
:102AE000EFF31180202383F31288BFF36F8F1368F5
:102AF0004B40136080F31188BFF36F8F0020704745
:102B00000369426800205A60704710B50269436843
:102B1000116829B15A681AB1B2FBF1F21C6822613E
:102B200003211A6891609B689847002010BD436894
:102B30001B685A68920743BF1B6800200B704FF058
:102B4000FF30704743681B685A68D207FCD419608D
:102B50007047034610465AB15B681A685068C00750
:102B600005D40120D0601B680A781A6070470020E5
:102B70007047034610465AB15B681A68506810F0F7
:102B8000020005D00220D06001201B681B680B707A
:102B90007047426811688B6823F004038B601368E8
:102BA0000122DA60704743681B685868C04300F030
:102BB0000100704743681A68936843F00803936004
:102BC0007047426811688B6823F008038B601368B4
:102BD0000222DA607047FFF7E6BF43681B68586857
:102BE000C0F340007047704743681B68D86800F026
:102BF00003007047012070470369C3E90112704761
:102C0000026953680BB191681847704710B5436863
:102C10001A68936843F004039360EFF31184202350
:102C200083F31288BFF36F8FFFF7EAFF84F31188F5
:102C3000BFF36F8F10BD08B5002203212120FDF7DF
:102C4000D3FF2120FDF7C2FF202000220321FDF742
:102C5000CBFFBDE808402020FDF7B8BF08B5002233
:102C600003212320FDF7C0FF2320FDF7AFFF222023
:102C700000220321FDF7B8FFBDE808402220FDF740
:102C8000A5BF08B5002203212520FDF7ADFF2520B3
:102C9000FDF79CFF242000220321FDF7A5FFBDE8DE
:102CA00008402420FDF792BF08B500220321272009
:102CB000FDF79AFF2720FDF789FF26200022032138
:102CC000FDF792FFBDE808402620FDF77FBF08B55D
:102CD000002203212920FDF787FF2920FDF776FF39
:102CE000282000220321FDF77FFFBDE808402820AF
:102CF000FDF76CBF70470020704700207047704799
:102D000040B1C368587810F001001EBF1878B0FABF
:102D100080F040097047EFF31183202383F312887A
:102D2000BFF36F8FFEE708B5FFF7F5FF10B5D0E9E9
:102D3000003433B90020E268537843F00103537044
:102D400010BD204698470028F4D00028B8BF404264
:102D5000FF28A8BFFF20E3681870ECE700F04EB929
:102D600000F03FB9202408B5EFF3118384F31288F3
:102D7000BFF36F8FFFF71CFDF6E790F90E308B4223
:102D800001D0FEF703BF00207047FEF755BFD0E922
:102D9000003213605A600023C0E90033704708B561
:102DA000FFF7F5FF437B23F00203437300238360A7
:102DB00008BD38B504460D46FEF7C8FD637B43F0F9
:102DC00002036373E5B1A5602B689D4209D16B686E
:102DD000C4E900531C606C6012E06A689A42F6D045
:102DE0001B68002BF3D094F90E2093F90E108A4241
:102DF000F3D09142F1DD5A68C4E9003214605C609E
:102E000038BD10B5EFF31184202383F31288BFF38C
:102E10006F8FFEF7B3FD84F31188BFF36F8F10BD82
:102E200038B50446EFF31185202383F31288BFF3EE
:102E30006F8F437B13F0280F0BD183680BB1FFF723
:102E4000AEFF637B51B903F0FB0320466373FEF7CB
:102E500095FD85F31188BFF36F8F38BD03F0EB0349
:102E6000F3E701211838FFF7DBBF38B5EFF3118521
:102E7000202383F31288BFF36F8F0468A0420DD024
:102E800034B12046FFF78BFF04F1180000F02AF858
:102E900085F31188BFF36F8F204638BD0024F7E714
:102EA000EFF31181202282F31288BFF36F8F027B30
:102EB000D2070CD581F31188BFF36F8F002383F302
:102EC0001188BFF36F8F0423184602DF7047437BDE
:102ED0001B0704D581F31188BFF36F8F7047012260
:102EE000FEF780BD10B5EFF31184202282F3128823
:102EF000BFF36F8F03683BB1FEF7BCFF002084F384
:102F00001188BFF36F8F10BD6FF01500F7E710B495
:102F100000F10C04C0E9034410BCFFF7CABB024631
:102F2000014410B58A42134603D01C780132002CAC
:102F3000F8D1181A10BDF0B5C3F13707044603F0F5
:102F40001F031046FFB2082BE6B232D0102B3DD043
:102F50006508A40845EAC17544EA81748A082D19F8
:102F600042EB5102290941EA02716D1842EB12123B
:102F7000290A41EA02616D1842EB1222290C41EA4A
:102F800002416D1842EB1242AD1842F10002EC080A
:102F900044EA4274D10804EB8402A6EB4205EDB288
:102FA000092D0CD90134A5F10A0541F10001EDB25A
:102FB00012E0E40806F0070544EA4174C908303518
:102FC00054EA010200F8015BBDD1F0BD240906F00E
:102FD0000F0544EA01740909092D84BFED19EDB20A
:102FE000EDE70A44431E914200D1704710B511F835
:102FF000014B914203F8014FF9D110BD0244034641
:10300000934200D1704703F8011BF9E701480068BB
:1030100070470000D0021028C920100000000000F6
:1030200043291000EC30100043291000D830100064
:1030300043291000C430100043291000B0301000A4
:103040003D11100000000000012B10001431100091
:10305000012B100028311000012B1000003110004E
:103060000B2B10008C3110000B2B1000783110004E
:103070000B2B1000643110000B2B1000503110008E
:103080000B2B10003C3110006111100000000000FB
:10309000FD11100000000000F72C100000000000DF
:1030A0001911100000000000FB2C100000000000AF
:1030B000D1371000F834100088351000DA001028DD
:1030C000F8021028DD3710001C351000883510007C
:1030D000DC00102804031028E937100040351000E8
:1030E00088351000DE00102810031028F537100076
:1030F0006435100088351000E00010281C031028EB
:1031000089371000A0341000AC351000D40010280E
:10311000B80210289C371000AC341000AC351000F9
:10312000D6001028C0021028AF371000B8341000A5
:10313000AC351000D8001028C80210280138100043
:10314000D03510000C361000E200102818001028AE
:103150000D381000DC3510000C361000E40010288B
:103160003C00102819381000E83510000C3610000B
:10317000E60010286000102825381000F4351000F3
:103180000C361000E8001028840010283138100098
:10319000003610000C361000EA001028A800102895
:1031A000000000009B271000000000009B2710007B
:1031B000000000009B271000000000009B2710006B
:1031C000000000009B271000000000009B2710005B
:1031D000000000009B271000000000009B2710004B
:1031E000000000009B271000000000009B2710003B
:1031F000000000009B271000000000009B2710002B
:10320000000000009B271000000000009B2710001A
:10321000000000009B271000000000009B2710000A
:10322000000000009B271000000000009B271000FA
:10323000000000009B271000000000009B271000EA
:10324000000000009B271000000000009B271000DA
:10325000000000009B271000000000009B271000CA
:10326000000000009B271000000000009B271000BA
:10327000000000009B271000000000009B271000AA
:10328000000000009B271000000000009B2710009A
:10329000000000009B271000000000009B2710008A
:1032A0008C311000012C10008C311000012C10000A
:1032B00078311000012C100078311000012C100022
:1032C00064311000012C100064311000012C10003A
:1032D00050311000012C100050311000012C100052
:1032E0003C311000012C10003C311000012C10006A
:1032F000000000009B271000000000009B2710002A
:10330000000000009B271000000000009B27100019
:10331000000000009B271000000000009B27100009
:10332000000000009B271000000000009B271000F9
:10333000000000009B271000000000009B271000E9
:10334000000000009B271000000000009B271000D9
:10335000000000009B271000000000009B271000C9
:10336000000000009B271000000000009B271000B9
:10337000000000009B271000000000009B271000A9
:10338000000000009B271000000000009B27100099
:10339000000000009B271000000000009B27100089
:1033A000000000009B271000000000009B27100079
:1033B000000000009B271000000000009B27100069
:1033C000EC301000A7291000D8301000A7291000F9
:1033D000C4301000A7291000B0301000A729100039
:1033E000000000009B271000000000009B27100039
:1033F000000000009B271000000000009B27100029
:10340000000000009B271000000000009B27100018
:10341000000000009B271000000000009B27100008
:10342000000000009B271000000000009B271000F8
:10343000000000009B271000000000009B271000E8
:10344000000000009B271000000000009B271000D8
:10345000000000009B271000000000009B271000C8
:10346000000000009B271000000000009B271000B8
:10347000000000009B271000000000009B271000A8
:10348000000000009B271000000000009B27100098
:10349000000000009B271000000000009B27100088
:1034A000FF0300004C203040FF0300000300000039
:1034B00008203040030000000300000000203040DE
:1034C00003000000000010280000000006000100BA
:1034D00002000000D834100000001000C2371000B5
:1034E00006000000E0FF170000001028CA37100097
:1034F00021000000E0FF1728FFFFFFFF0030104011
:103500009129100000000000003010400001000070
:10351000003010400002000000301040FFFFFFFFAD
:10352000002010407B291000000000000020104007
:1035300000010000002010400002000000201040A8
:10354000FFFFFFFF00101040652910000000000081
:1035500000101040000100000010104000020000A8
:1035600000101040FFFFFFFF000010404F29100027
:1035700000000000000010400001000000001040AA
:1035800000020000000010406328100019281000FD
:103590002528100037281000452810005528100055
:1035A000A7281000F128100000000000D929100001
:1035B0003F2A1000512A1000812A1000AB2A100067
:1035C000D72A1000000000000000000000000000EA
:1035D0000040204040787D01CF2C1000003020407A
:1035E00040787D01A92C10000020204040787D010A
:1035F000832C10000010204040787D015D2C1000CD
:103600000000204040787D01372C10002F2B100047
:10361000452B10000000000000000000000000002A
:10362000532B1000732B10000D2C1000932B100047
:10363000A72B1000B52B1000C32B1000D72B1000A8
:10364000DB2B1000E72B1000F52C1000E92B1000ED
:10365000F52B1000F92B1000183010001830100056
:103660009030100098301000B0301000B0301000D2
:1036700047656E65726174696E6720323536206207
:1036800079746573206F662072616E646F6D20645B
:103690006174613A002530325820006D7073320039
:1036A00054462D4D20495043206F6E2025730A004B
:1036B0005468652076657273696F6E206F6620743A
:1036C000686520505341204672616D65776F726B5B
:1036D000204150492069732025642E0A00546865F2
:1036E0002076657273696F6E206F6620746865203E
:1036F000505341204672616D65776F726B20415067
:1037000049206973206E6F742076616C6964210AA8
:1037100000526F5420536572766963652069732087
:103720006E6F7420696D706C656D656E7465642074
:103730006F722063616C6C6572206973206E6F74A8
:103740002000617574686F72697A656420746F20F7
:10375000616363657373206974210A00546865208E
:103760005053412043727970746F2073657276698B
:103770006365206D696E6F722076657273696F6E16
:103780002069732025642E0A006D7073325F6670A5
:103790006761696F40333032303463006D7073326B
:1037A0005F66706761696F40333032303038006D6A
:1037B0007073325F66706761696F403330323030EA
:1037C0003000464C4153485F30005352414D5F300A
:1037D000006770696F403130333030300067706996
:1037E0006F40313032303030006770696F403130B7
:1037F00031303030006770696F40313030303030F8
:10380000007561727440323034303030007561724E
:103810007440323033303030007561727440323071
:1038200032303030007561727440323031303030B7
:10383000007561727440323030303030006D616933
:103840006E002A2A2A20426F6F74696E67205A65BB
:1038500070687972204F53206275696C64207633EA
:103860002E362E302D343139372D673634383934F1
:1038700065383739386434202A2A2A0A00286E75B8
:103880006C6C29002A666C6F61742A006327100033
:1038900021071000000000000F28100000000000A9
:1038A0000000000000C20100000000000000000055
:1038B00001000000004020400101000000402040C5
:1038C000010200000040204000C201000000000092
:1038D0000000000001000000003020400101000055
:1038E00000302040010200000030204000C20100F2
:1038F0000000000000000000010000000020204047
:1039000001010000002020400102000000202040B2
:1039100000C20100000000000000000001000000E3
:1039200000102040010100000010204001020000B2
:103930000010204000C20100000000000000000054
:1039400001000000000020400101000000002040B4
:103950000102000000002040CC001028CC001028FC
:103960000000000000000000000000000000000057
:10397000000000000000000000000000701C102883
:1039800000100000000000000000000000011028EE
:103990000001102800000000000000000E000000E0
:1039A00015E015E008696C005000040000000000FC
:1039B00060005C00A501644E5350450465302E3014
:1039C0002E30055820B360CAF5C98C6B942A488202
:1039D000FA9D4823EFB166A9EF6A6E4AA37C1919D4
:1039E000ED1FCCC049066653484132353602582097
:1039F00000000000000000000000000000000000C7
:103A000000000000000000000000000000000000B6
:103A100007693E031000200059A8C917D567CBCE0F
:103A2000596F030FD4BEA246C70D648E555541F59C
:103A3000493185CDA6D15C8102008E013082018A98
:103A40000282018100BFB7B09FE8C8D1FE161D53A6
:103A50008797791C15C799166CCAB82DCAC20D6212
:103A6000F9EB8FE93A184347D7BBD562BCE3336320
:103A7000A7A3A85CF32378FD2D07211FB954702854
:103A8000A908DA507E9E8ECC684E7F480DEA27E862
:103A9000C6EFAD5F9D464ABC699A305F3BC152920A
:103AA000F8BC75D43C27704000A62E287F59E560ED
:103AB0004311DC31097DCF2F413FB6521AA349167D
:103AC000F2B5B39C3CFB5E2C1F2286BDAEBE3652C7
:103AD000BDC4F0586936A7803E81B35498E45D9523
:103AE000ED21F0BAAE21FBC4198755D12B4F00D878
:103AF0004158CBDBA99A53E96C67CB7C5DF6910604
:103B00007552F2C07EB16B5D3040402FD81E953C9F
:103B100005977FF004F04E2CD5390E943D7C0308B8
:103B20001D0908F28D440DCFB3963D5A76E8F6EEA6
:103B30009364E857D1E2F50B18696FE9E13DF88924
:103B40004928E6AFB8A8C642552DC1DB8C5DB26DE1
:103B50007FFE26EA75D9FD1FDC223BA41BA7ADEB37
:103B600071DFBDB437D1EBBE08101C78841C9A7588
:103B7000C4ADE5EF7317AC6978BCD6378C0C142153
:103B80000647BDF80AAC19099D0D1D72E13E1A7475
:103B9000EA86D95C4ACDCCC694A7FEDA0B8711BB66
:103BA0006BF03AE34F824FB1E4A4CDBC703C9D9CD6
:103BB00049F9CF286DB8DA6F7D385755432A738D90
:103BC000B618FD70A70203010001230080010387DE
:103BD0008702A4AE0825D296ED27C609A5CFA41862
:103BE000842A8AE69ABA2F84D13F9E9A7CE7BD3E0A
:103BF000A5F684F577037E0CCF66F17E8E9C1A19AC
:103C00004679CAAB4441D855D862A1B7F431569E23
:103C10007FB9C0EAD19B8823F89B743D3241A67BD3
:103C2000204A7D1B0138579A5DCCC6BB6B3C97DDA3
:103C300058CA33B4B778D55F24996113AFC790E4FD
:103C40000B00BCF4BBC5B8FC640BB54571E36CF765
:103C5000F61B1F7EF67C923C334DCDE2B13F2A72BB
:103C6000CF839794BBA9BA649DF34286B905545893
:103C70002E0EB3198B0988A3B07F348F25B335F985
:103C8000483094F72083E24F96224F5420FE20F9CB
:103C9000AEB33D33AC973E893ED9714B20884AE79D
:103CA00045560672858C9AE7B8221A9B0A69479492
:103CB000973A66D9C5E11416CAAA542544E72912D1
:103CC0007C2F1AF09D8B737952C0196B0450EA95C2
:103CD0006C1F4C0B88A81A34940F2E5578CB33EDFB
:103CE0005AC2421D7274ECC12F3F162299CC89260C
:103CF000CD17ABE9CF4482501F2EB24F38DB334D86
:103D0000762D2B36020FB81FDD7134E6F520FC86C8
:103D10002573FF01C6DB73D789D3DAE783767C9EF0
:103D200017422CE722EC18760F8035BED30E706C4C
:103D3000AD81B2DA96F6F0831EC32CA853227D64BF
:0E3D4000BADA519F47A0AFEB4E074C624939EB
:00000001FF
